:020000040800F2
:10000000E80400209D01000841030008E102000807
:100010003D030008E50100082B0A0008000000006D
:10002000000000000000000000000000650500085E
:10003000E901000800000000190400087D0600081E
:10004000B7010008B7010008B7010008B7010008B0
:10005000B7010008B7010008B7010008B7010008A0
:10006000B7010008B7010008B7010008B701000890
:10007000B7010008B7010008B7010008B701000880
:10008000B7010008B7010008B7010008B701000870
:10009000B7010008B7010008B7010008B701000860
:1000A000B7010008B7010008B7010008B701000850
:1000B000B7010008B7010008B7010008B701000840
:1000C000B7010008B7010008B7010008B701000830
:1000D000B701000825070008B7010008B7010008AC
:1000E000B7010008B7010008B7010008B701000810
:1000F000B7010008B7010008B7010008B701000800
:10010000B7010008B7010008B7010008B7010008EF
:10011000B7010008B7010008B7010008B7010008DF
:10012000B7010008B7010008B7010008B7010008CF
:10013000B7010008B7010008B7010008B7010008BF
:10014000B7010008B7010008B7010008B7010008AF
:10015000B7010008B7010008B7010008B70100089F
:10016000B7010008B7010008B7010008B70100088F
:10017000B7010008B7010008B7010008B70100087F
:10018000B7010008B7010008DFF80CD000F018F83C
:1001900000480047290B0008E80400200648804773
:1001A00006480047FEE7FEE7FEE7FEE7FEE7FEE75C
:1001B000FEE7FEE7FEE7FEE7BD060008890100084E
:1001C000064C074D06E0E06840F0010394E80700A4
:1001D00098471034AC42F6D3FFF7DAFF100C000852
:1001E000300C000800BFFEE7704710B5012108077A
:1001F00000F024F9012000F0EBF8012000F006F9EE
:1002000000F0F0F810BDF0B50A46002100230024EC
:1002100000BF3DE0012505FA01F3156805EA030476
:100220009C4234D105684F000326BE40B5430560AB
:1002300015794E00B5400668354305601579012DE6
:1002400002D01579022D16D185684F000326BE40D5
:10025000B543856055794E00B54086683543856065
:10026000456801268E40B5434560456896798E40C5
:10027000B6B235434560C5684F000326BE40B5435E
:10028000C560D5794E00B540C6683543C560491C88
:100290001029BFD3F0BDF0B5002300244D07ED0EAB
:1002A00002FA05F3CE1000F1200555F826504E074E
:1002B000F70E0F26BE40B543CF1000F1200646F8DA
:1002C0002750CE1000F1200555F8265045EA0304CA
:1002D000CE1000F1200545F82640F0BD018370479F
:1002E00000BFFEE71CB50121202000F097F8012097
:1002F0008DF804004002009003208DF805000020D6
:100300008DF8060001208DF8070069460A48FFF7BE
:100310007AFF4FF400710848FFF7E0FF4FF4806068
:10032000009069460448FFF76EFF4FF48061024871
:10033000FFF7D4FF1CBD00000014024000BFFEE721
:100340007047000070B5002100230F22C4781CB351
:10035000174C246804F4E064C4F5E064C4F3072196
:10036000C1F10404E3B20A4144789C40E1B28478CC
:10037000144021430C07210E0E4C0578615504787A
:1003800004F01F050124AC4005786D11AD0005F1A6
:10039000E025C5F8004109E0047804F01F050124B8
:1003A000AC40054D0678761145F8264070BD00003A
:1003B0000CED00E000E400E080E100E002490143D0
:1003C000024A1160704700000000FA050CED00E0E1
:1003D0000349096841EA8001014A11607047000041
:1003E000007000400748006840F0020005490860BE
:1003F0000548006840F004000349086000BF00BFE2
:1004000030BF70470070004010ED00E00149086007
:1004100070470000A0000E427047000029B1064A54
:1004200012680243044B1A6004E0034A12688243D4
:10043000014B1A60704700003038024029B1064A6B
:1004400012680243044B1A6004E0034A12688243B4
:10045000014B1A60704700004038024029B1064A3B
:1004600012680243044B1A6004E0034A1268824394
:10047000014B1A607047000044380240F0B500217B
:1004800000220024022500260223324F3F6807F095
:100490000C0121B1042905D0082937D105E02E4FE0
:1004A000076036E02D4F076033E02A4F3F1F3F685B
:1004B000C7F38056274F3F1F3F6807F03F036EB1D9
:1004C000264FB7FBF3F7DFF88CC0ACF1040CDCF877
:1004D00000C0CCF3881C07FB0CF40CE01E4FB7FBEC
:1004E000F3F7DFF870C0ACF1040CDCF800C0CCF31B
:1004F000881C07FB0CF4174F3F1F3F68C7F30147E9
:100500007F1C7D00B4FBF5F7076002E0124F076027
:1005100000BF00BF0F4F3F6807F0F0010909104FFF
:100520007A5C0768D74047600A4F3F6807F4E0519C
:10053000890A0B4F7A5C4768D7408760054F3F6850
:1005400007F46041490B064F7A5C4768D740C760A3
:10055000F0BD0000083802400024F40000127A00C8
:1005600000000020704700000CB5002001900090B2
:100570003448006840F480303249086000BF314898
:10058000006800F4003000900198401C0190009831
:1005900018B90198B0F5A04FF1D12A48006800F4CD
:1005A000003010B10120009001E000200090009880
:1005B000012846D123484030006840F0805021494E
:1005C000403108602048006840F440401E490860FF
:1005D0001C48083000681B4908310860084600685C
:1005E00040F4004008600846006840F4A0500860ED
:1005F0001648091F0860081F006840F08070091F36
:10060000086000BF0F48006800F000700028F9D0B3
:1006100040F205700E4908600A480830006820F072
:1006200003000849083108600846006840F00200ED
:10063000086000BF03480830006800F00C0008287C
:10064000F8D10CBD0038024000700040085440074B
:10065000003C0240042808D14FF0E021096941F034
:1006600004014FF0E022116107E04FF0E021096939
:1006700021F004014FF0E022116170477047000043
:1006800010B504466FF00400FFF7E4FFE11704EB38
:100690005171C1F3C701074A11701046007800EB91
:1006A0004001C1EBC0104FF6FF7101EAC0000249E2
:1006B000088010BD100000201200002010B5154861
:1006C000006840F47000134908601348006840F067
:1006D00001001149086000200F49083108600E48E8
:1006E00000680E4908400C4908600D48091D086063
:1006F000081F006820F48020091F086000200649B8
:100700000C310860FFF730FF4FF00060014980397D
:10071000086010BD88ED00E000380240FFFFF6FEE3
:100720001030002410B540F225511D4800F0BAF8F1
:1007300010B31B4800F070F9C4B21A48008800F4E6
:100740000040C8B91748008800F4804060B10A2C06
:1007500003D000201349088020E01248008840F4AC
:1007600000401049088019E00D2C06D10D48008882
:1007700040F480400B49088010E00A480088C0F32C
:100780000D0009490C5407480088401C05490880A1
:1007900008460088C72801DD0020088010BD000041
:1007A00000100140140000201C00002010B588B08B
:1007B000044601210846FFF731FE01211020FFF712
:1007C0004DFE072209212448FFF765FD07220A2173
:1007D0002148FFF760FD4FF4C060069002208DF8BD
:1007E0001C008DF81D0000208DF81E0001208DF8E2
:1007F0001F0006A91848FFF706FD02940020ADF877
:100800000C00ADF80E00ADF81000ADF814000C208F
:10081000ADF8120002A9114800F094F801210F4828
:1008200000F027F840210D4800F01AF8012240F2AC
:1008300025510A4800F060F825208DF804000320B7
:100840008DF805008DF8060001208DF8070001A83D
:10085000FFF778FD08B010BD000002400010014015
:1008600001F40072B2F5007F00D100BFCA430280DC
:10087000704721B1828942F40052828104E082896A
:100880004DF6FF731A408281704702460020B1F591
:10089000007F00D100BF13880B400BB1012000E0A6
:1008A0000020704770B50246002400230025002078
:1008B00040F66A16B14200D100BFC1F3421501F003
:1008C0001F03012606FA03F3012D02D19689334056
:1008D00006E0022D02D1168A334001E0968A3340A9
:1008E0000C12012606FA04F41688344013B10CB138
:1008F000012000E0002070BDF0B503460024002672
:100900000025002040F66A17B94200D100BF184602
:10091000C1F3421401F01F06012707FA06F5012C66
:1009200001D10C3004E0022C01D1103000E0143071
:100930001AB107682F43076002E00768AF430760FA
:10094000F0BD00002DE9FF4705460E460024A146F4
:1009500000BFA046B08900B100BF2C8A24F44054E7
:10096000F08804432C82AC8941F20C608443B08847
:1009700031890843718908430443AC81AC8A24F46B
:100980004074B0890443AC826846FFF777FD204885
:10099000854202D01F48854202D1DDF80C9001E06B
:1009A000DDF80890A88900F4004040B109EBC900C7
:1009B00000EB091031684900B0FBF1F707E009EBE3
:1009C000C90000EB091031688900B0FBF1F7642021
:1009D000B7FBF0F004012009642101FB1078A8891D
:1009E00000F4004040B1322000EBC800B0FBF1F051
:1009F00000F00700044308E0322000EB08106421F7
:100A0000B0FBF1F000F00F0004432C81BDE8FF873C
:100A1000001001400014014001468888C0F308001E
:100A20007047C1F308028280704700BFFEE70000F4
:100A3000014A024900F013B8050B00081800002015
:100A400002E008C8121F08C1002AFAD17047704797
:100A5000002001E001C1121F002AFBD170472DE9DF
:100A6000F04116460F460446002503E03946B047DC
:100A7000641C6D1C20780028F8D12846BDE8F08160
:100A800070B504464FF4077094FBF0F0C6B24FF413
:100A9000077094FBF0F100FB114085B205E04FF4C4
:100AA000077000F009F8701EC6B2002EF7D115B11C
:100AB000284600F001F870BD0146114A12884A43E9
:100AC0004FF0E0235A6100229A611A46126942F0FF
:100AD00001021A6100BF4FF0E022106900F001022C
:100AE0001AB100F48032002AF5D04FF0E0221269EA
:100AF00022F001024FF0E0231A6100229A61704750
:100B00001200002070B504460D46E1B20548FFF71B
:100B100088FF00BF80210348FFF7B7FE0028F9D007
:100B2000204670BD00100140A820FFF7A9FD4FF43A
:100B3000A060FFF743FCFFF7D5FB4FF4E130FFF770
:100B400035FE38E01CA0FFF773FF00201D49086048
:100B50004FF47A70FFF794FF1BA0FFF769FF0120A5
:100B60001C49C1F8A4024FF47A70FFF789FF1AA05C
:100B7000FFF75EFF0020134908604FF47A70FFF71B
:100B80007FFF18A0FFF754FF01201249C1F8A4020B
:100B90004FF47A70FFF774FF15A0FFF749FF0020AC
:100BA000084908604FF47A70FFF76AFF13A0FFF757
:100BB0003FFFFFF71AFBC5E774696D653A20350DF5
:100BC0000A000000A482424274696D653A20340D27
:100BD0000A0000000080424274696D653A20330DBE
:100BE0000A00000074696D653A20320D0A000000A9
:100BF00074696D653A20310D0A000000BDF8C8EB3C
:100C0000CFB5CDB3B4FDBBFAC4A3CABD0D0A000075
:100C1000300C0008000000201C000000400A000802
:100C20004C0C00081C000020CC040000500A0008F6
:100C30000000000001020304010203040607080982
:0C0C4000000000000000000000000000A8
:040000050800018965
:00000001FF
