:020000040800F2
:10000000680600202902000825040008C303000830
:10001000210400082503000809060008000000006C
:10002000000000000000000000000000490400087B
:1000300029030008000000002704000861050008EB
:10004000430200084302000843020008430200087C
:10005000430200084302000843020008430200086C
:10006000430200084302000843020008430200085C
:10007000430200084302000843020008430200084C
:10008000430200084302000843020008430200083C
:10009000430200084302000843020008430200082C
:1000A000430200084302000843020008430200081C
:1000B000430200084302000843020008430200080C
:1000C00043020008430200084302000843020008FC
:1000D00043020008430200084302000843020008EC
:1000E00043020008430200084302000843020008DC
:1000F00043020008430200084302000843020008CC
:1001000043020008430200084302000843020008BB
:1001100043020008430200084302000843020008AB
:10012000430200084302000843020008430200089B
:10013000430200084302000843020008430200088B
:10014000430200084302000843020008430200087B
:10015000430200084302000843020008430200086B
:10016000430200084302000843020008430200085B
:10017000430200084302000843020008430200084B
:10018000430200084302000800F002F800F03CF8C7
:100190000AA090E8000C82448344AAF10107DA45E2
:1001A00001D100F031F8AFF2090EBAE80F0013F0F8
:1001B000010F18BFFB1A43F0010318472405000084
:1001C00044050000103A24BF78C878C1FAD8520715
:1001D00024BF30C830C144BF04680C6070470000C1
:1001E0000023002400250026103A28BF78C1FBD840
:1001F000520728BF30C148BF0B6070471FB500F0E1
:1002000069FA1FBD10B510BD00F031F81146FFF7B7
:10021000F5FF00F03DFA00F04FF803B4FFF7F2FFEE
:1002200003BC00F057F80000094880470948004720
:10023000FEE7FEE7FEE7FEE7FEE7FEE7FEE7FEE796
:10024000FEE7FEE704480549054A064B70470000F3
:10025000A105000889010008680000206806002048
:10026000680200206802002070477047704775469A
:1002700000F02CF8AE4605006946534620F0070012
:10028000854618B020B5FFF7DDFFBDE820404FF0F0
:1002900000064FF000074FF000084FF0000B21F070
:1002A0000701AC46ACE8C009ACE8C009ACE8C0093D
:1002B000ACE8C0098D46704710B50446AFF3008026
:1002C0002046BDE81040FFF7A8BF00000048704777
:1002D0000400002001491820ABBEFEE72600020002
:1002E000704700001CB50121202000F09DF801207E
:1002F0008DF804000002009003208DF80500002016
:100300008DF8060001208DF807006946044800F0CA
:100310000CF84FF48071024800F04FF81CBD00004B
:100320000014024000BFFEE77047F0B50A46002106
:100330000023002400BF3DE0012505FA01F3156804
:1003400005EA03049C4234D105684F000326BE40F1
:10035000B543056015794E00B54006683543056024
:100360001579012D02D01579022D16D185684F001F
:100370000326BE40B543856055794E00B54086687A
:1003800035438560456801268E40B5434560456824
:1003900096798E40B6B235434560C5684F00032656
:1003A000BE40B543C560D5794E00B540C6683543FB
:1003B000C560491C1029BFD3F0BD4183704701833C
:1003C000704700BFFEE700001CB50121202000F0AF
:1003D0002BF801208DF804004002009003208DF8D6
:1003E000050000208DF8060001208DF80700694601
:1003F0000A48FFF79AFF4FF400710848FFF7DFFF44
:100400004FF48060009069460448FFF78EFF4FF478
:1004100080610248FFF7D3FF1CBD000000140240BA
:1004200000BFFEE77047704729B1064A12680243D1
:10043000044B1A6004E0034A12688243014B1A60BD
:100440007047000030380240704700000CB50020B3
:10045000019000903448006840F4803032490860D0
:1004600000BF3148006800F4003000900198401C43
:100470000190009818B90198B0F5A04FF1D12A4821
:10048000006800F4003010B10120009001E000206D
:1004900000900098012846D123484030006840F081
:1004A00080502149403108602048006840F44040B5
:1004B0001E4908601C48083000681B490831086064
:1004C0000846006840F4004008600846006840F4B0
:1004D000A05008601648091F0860081F006840F017
:1004E0008070091F086000BF0F48006800F00070AE
:1004F0000028F9D040F205700E4908600A4808301B
:10050000006820F0030008490831086008460068C8
:1005100040F00200086000BF03480830006800F0A7
:100520000C000828F8D10CBD0038024000700040D3
:1005300008544007003C0240042808D14FF0E02155
:10054000096941F004014FF0E022116107E04FF02A
:10055000E021096921F004014FF0E02211617047A8
:100560007047000010B504466FF00400FFF7E4FF89
:10057000E11704EB5171C1F3C701074A117010462E
:10058000007800EB4001C1EBC0104FF6FF7101EAAB
:10059000C0000249088010BD0000002002000020B9
:1005A00010B51548006840F47000134908601348FE
:1005B000006840F001001149086000200F4908312F
:1005C00008600E4800680E4908400C4908600D4854
:1005D000091D0860081F006820F48020091F0860BA
:1005E000002006490C310860FFF730FF4FF0006033
:1005F00001498039086010BD88ED00E000380240F4
:10060000FFFFF6FE1030002400BFFEE770B5044681
:100610004FF4077094FBF0F0C6B24FF4077094FBF0
:10062000F0F100FB114085B205E04FF4077000F0D7
:1006300009F8701EC6B2002EF7D115B1284600F099
:1006400001F870BD0146114A12884A434FF0E02379
:100650005A6100229A611A46126942F001021A6137
:1006600000BF4FF0E022106900F001021AB100F45F
:100670008032002AF5D04FF0E022126922F0010208
:100680004FF0E0231A6100229A61704702000020B7
:10069000A820FFF767FFFFF797FEFFF723FE14E0A0
:1006A0000A48006808B9012000E0002007490860F6
:1006B00001200749C1F8A002FFF7A8FF0020034965
:1006C000091F08600520FFF7A1FFE9E7A482424265
:1006D000008042424FF04070E1EE100A7047000087
:1006E000000700080000002004000000C40100080A
:1006F000040700080400002064060000E001000870
:0407000000000000F5
:040000050800018965
:00000001FF
