:020000040800F2
:10000000681800209D01000811070008CD050008B0
:100010000D070008E50100089B0D00080000000026
:10002000000000000000000000000000CD080008F3
:10003000F104000800000000A1070008FD09000805
:10004000B7010008B7010008B7010008B7010008B0
:10005000B7010008B7010008B7010008B7010008A0
:10006000B7010008B7010008B7010008B701000890
:10007000B7010008B7010008B7010008B701000880
:10008000B7010008B7010008B7010008B701000870
:10009000B7010008B7010008B7010008B701000860
:1000A000B7010008B7010008B7010008B701000850
:1000B000B7010008B7010008B7010008B701000840
:1000C000B7010008B7010008B7010008B701000830
:1000D000B7010008A50A0008B7010008B701000829
:1000E000B7010008B7010008B7010008B701000810
:1000F000B7010008B7010008B7010008B701000800
:10010000B7010008B7010008B7010008B7010008EF
:10011000B7010008B7010008B7010008B7010008DF
:10012000B7010008B7010008B7010008B7010008CF
:10013000B7010008B7010008B7010008B7010008BF
:10014000B7010008B7010008B7010008B7010008AF
:10015000B7010008B7010008B7010008B70100089F
:10016000B7010008B7010008B7010008B70100088F
:10017000B7010008B7010008B7010008B70100087F
:10018000B7010008B7010008DFF80CD000F018F83C
:1001900000480047410E00086818002006488047C4
:1001A00006480047FEE7FEE7FEE7FEE7FEE7FEE75C
:1001B000FEE7FEE7FEE7FEE73D0A000889010008CA
:1001C000064C074D06E0E06840F0010394E80700A4
:1001D00098471034AC42F6D3FFF7DAFF100F00084F
:1001E000300F000800BFFEE70246094B9A4201D2D9
:1001F000084801E00648103801F000531BB1064BD7
:100200000B40C36002E0044B0B408360704700006A
:1002100010640240006002407D0F7D0F21B1026832
:1002200042F00102026003E0026822F00102026073
:1002300070470000016821F00101016000210160A8
:1002400041608160C1600161212141614A49884268
:1002500004D13D21484A103A91608CE0464918315A
:10026000884205D14FF47461434A103A916082E0AC
:1002700041493031884205D14FF474113E4A103A59
:10028000916078E03C494831884205D14FF0746173
:10029000394A103A91606EE037496031884204D1A2
:1002A0003649354A103AD16065E0334978318842A1
:1002B00004D13349304A103AD1605CE02E49903184
:1002C000884204D12F492C4A103AD16053E02A4980
:1002D000A831884205D14FF03D51274A103AD160EC
:1002E00049E02949884204D13D21274A083A116052
:1002F00041E025491831884205D14FF47461224A02
:10030000083A116037E020493031884205D14FF476
:1003100074111D4A083A11602DE01B49483188428A
:1003200005D14FF07461184A083A116023E016496C
:100330006031884204D11149134A121F11601AE03A
:1003400011497831884204D10D490F4A121F1160BA
:1003500011E00D499031884204D10A490A4A121F1E
:10036000116008E00849A831884204D14FF03D519E
:10037000054A121F11607047106002403D000020C6
:10038000400F002000003D20106402400146002084
:100390000A6802F001020AB1012000E00020704763
:1003A00030B503460A46002000240B4DAB4201D273
:1003B0000A4901E00849103902F000550DB14C68B6
:1003C00000E00C68064D2C4004EA02050DB1012046
:1003D00000E0002030BD00001064024000600240D8
:1003E0007D0F7D0F10B500220268134B1A40CC68B8
:1003F0000B6823434C6923438C692343CC69234313
:100400000C6A23434C6A23438C6A23434C6B23437B
:100410008C6B23431A430260426922F00702D1E940
:100420000B3423431A4342610B6943604B6883607A
:100430008B68C36010BD00003F801CF041607047B6
:1004400070B504460D4600212046FFF7E7FE00BFC9
:100450002046FFF79BFF0028FAD129462046FFF7E8
:10046000EDFF01212046FFF7D9FE70BD2DE9F041D7
:1004700090B004460D4617461E46DDF858801B48CE
:10048000844204D90121880500F08CF903E00121A0
:10049000480500F087F92046FFF7CCFE00BF204654
:1004A000FFF774FF0028FAD10195029703964020C8
:1004B0000490CDF81480002006904FF480600790DF
:1004C0000020089009900A904FF480300B90002093
:1004D0000C9003200D9000200E900F9001A9204653
:1004E000FFF780FF10B0BDE8F0810000006402401B
:1004F0007047F0B50A4600210023002400BF3DE00C
:10050000012505FA01F3156805EA03049C4234D17C
:1005100005684F000326BE40B543056015794E00BF
:10052000B5400668354305601579012D02D015796F
:10053000022D16D185684F000326BE40B543856065
:1005400055794E00B540866835438560456801267B
:100550008E40B5434560456896798E40B6B23543C6
:100560004560C5684F000326BE40B543C560D579D8
:100570004E00B540C6683543C560491C1029BFD33D
:10058000F0BDF0B5002300244D07ED0E02FA05F38F
:10059000CE1000F1200555F826504E07F70E0F2615
:1005A000BE40B543CF1000F1200646F82750CE10CC
:1005B00000F1200555F8265045EA0304CE1000F15D
:1005C000200545F82640F0BD0183704700BFFEE7D7
:1005D0001CB50121112000F0E5F800208DF8040081
:1005E0001C20009001208DF8070069460748FFF79E
:1005F00080FF00208DF804000120009002208DF87B
:10060000070069460248FFF774FF1CBD0010024056
:100610000000024010B50446012C01D122490870A7
:100620002148007801282AD12048006801280AD0F2
:100630001F48006838B11E48001F006818B11C48E8
:1006400008380068D8B90A2000F0B8FB0020164925
:10065000087016480068012800D110BD14480068D1
:1006600008B90220F9E71248001F006808B9032002
:10067000F3E70F4808380068A0B90420EDE70B48FD
:10068000006878B90A48006801280BD10848001FA3
:100690000068012806D1064808380068012801D101
:1006A000014908700020D8E71600002000024042EF
:1006B000100242421CB50121202000F073F80120F5
:1006C0008DF804004002009003208DF80500002002
:1006D0008DF8060001208DF8070069460A48FFF7EB
:1006E00008FF4FF400710848FFF76EFF4FF4806079
:1006F000009069460448FFF7FCFE4FF48061024811
:10070000FFF762FF1CBD00000014024000BFFEE7BF
:100710007047000070B5002100230F22C4781CB37D
:10072000174C246804F4E064C4F5E064C4F30721C2
:10073000C1F10404E3B20A4144789C40E1B28478F8
:10074000144021430C07210E0E4C057861550478A6
:1007500004F01F050124AC4005786D11AD0005F1D2
:10076000E025C5F8004109E0047804F01F050124E4
:10077000AC40054D0678761145F8264070BD000066
:100780000CED00E000E400E080E100E002490143FC
:10079000024A1160704700000000FA050CED00E00D
:1007A0007047000029B1064A12680243044B1A60E0
:1007B00004E0034A12688243014B1A60704700004C
:1007C0003038024029B1064A12680243044B1A60CD
:1007D00004E0034A12688243014B1A60704700002C
:1007E00044380240F0B500210022002402250026F2
:1007F0000223324F3F6807F00C0121B1042905D0D4
:10080000082937D105E02E4F076036E02D4F0760ED
:1008100033E02A4F3F1F3F68C7F38056274F3F1FE3
:100820003F6807F03F036EB1264FB7FBF3F7DFF8E1
:100830008CC0ACF1040CDCF800C0CCF3881C07FBC6
:100840000CF40CE01E4FB7FBF3F7DFF870C0ACF10F
:10085000040CDCF800C0CCF3881C07FB0CF4174F29
:100860003F1F3F68C7F301477F1C7D00B4FBF5F7CE
:10087000076002E0124F076000BF00BF0F4F3F68E4
:1008800007F0F0010909104F7A5C0768D74047600C
:100890000A4F3F6807F4E051890A0B4F7A5C4768BA
:1008A000D7408760054F3F6807F46041490B064F0A
:1008B0007A5C4768D740C760F0BD00000838024046
:1008C0000024F40000127A0000000020704700218C
:1008D00004E035220270401C4A1C91B241F2883279
:1008E0009142F6DB704700000CB5002001900090AB
:1008F0003448006840F480303249086000BF314815
:10090000006800F4003000900198401C01900098AD
:1009100018B90198B0F5A04FF1D12A48006800F449
:10092000003010B10120009001E0002000900098FC
:10093000012846D123484030006840F080502149CA
:10094000403108602048006840F440401E4908607B
:100950001C48083000681B490831086008460068D8
:1009600040F4004008600846006840F4A050086069
:100970001648091F0860081F006840F08070091FB2
:10098000086000BF0F48006800F000700028F9D030
:1009900040F205700E4908600A480830006820F0EF
:1009A00003000849083108600846006840F002006A
:1009B000086000BF03480830006800F00C000828F9
:1009C000F8D10CBD003802400070004008544007C8
:1009D000003C0240042808D14FF0E021096941F0B1
:1009E00004014FF0E022116107E04FF0E0210969B6
:1009F00021F004014FF0E0221161704770470000C0
:100A000010B504466FF00400FFF7E4FFE11704EBB4
:100A10005171C1F3C701074A11701046007800EB0D
:100A20004001C1EBC0104FF6FF7101EAC00002495E
:100A3000088010BD100000201200002010B51548DD
:100A4000006840F47000134908601348006840F0E3
:100A500001001149086000200F49083108600E4864
:100A600000680E4908400C4908600D48091D0860DF
:100A7000081F006820F48020091F08600020064934
:100A80000C310860FFF730FF4FF0006001498039FA
:100A9000086010BD88ED00E000380240FFFFF6FE60
:100AA0001030002410B540F225511D4800F0B6F872
:100AB00010B31B4800F06CF9C4B21A48008800F467
:100AC0000040C8B91748008800F4804060B10A2C83
:100AD00003D000201349088020E01248008840F429
:100AE00000401049088019E00D2C06D10D480088FF
:100AF00040F480400B49088010E00A480088C0F3A9
:100B00000D0009490C5407480088401C054908801D
:100B100008460088C72801DD0020088010BD0000BD
:100B20000010014014000020A013002010B588B070
:100B3000044601210846FFF735FE01211020FFF78A
:100B400041FE072209212448FFF71BFD07220A2145
:100B50002148FFF716FD4FF4C060069002208DF883
:100B60001C008DF81D0000208DF81E0001208DF85E
:100B70001F0006A91848FFF7BCFC02940020ADF83E
:100B80000C00ADF80E00ADF81000ADF814000C200C
:100B9000ADF8120002A9114800F090F801210F48A9
:100BA00000F027F840210D4800F01AF8012240F229
:100BB00025510A4800F05CF825208DF80400032038
:100BC0008DF805008DF8060001208DF8070001A8BA
:100BD000FFF7A0FD08B010BD00000240001001406A
:100BE00001F40072B2F5007F00D100BFCA43028059
:100BF000704721B1828942F40052828104E08289E7
:100C00004DF6FF731A40828170471AB1838A0B43F5
:100C1000838202E0838A8B438382704770B50246E9
:100C2000002400230025002040F66A16B14200D1BE
:100C300000BFC1F3421501F01F03012606FA03F3BA
:100C4000012D02D19689334006E0022D02D1168A89
:100C5000334001E0968A33400C12012606FA04F470
:100C60001688344013B10CB1012000E0002070BDA3
:100C7000F0B50346002400260025002040F66A1740
:100C8000B94200D100BF1846C1F3421401F01F065B
:100C9000012707FA06F5012C01D10C3004E0022CE3
:100CA00001D1103000E014301AB107682F430760FB
:100CB00002E00768AF430760F0BD00002DE9FF4781
:100CC00005460E460024A14600BFA046B08900B1EB
:100CD00000BF2C8A24F44054F08804432C82AC8951
:100CE00041F20C608443B08831890843718908431C
:100CF0000443AC81AC8A24F44074B0890443AC82D0
:100D00006846FFF76FFD2048854202D01F488542A4
:100D100002D1DDF80C9001E0DDF80890A88900F41C
:100D2000004040B109EBC90000EB091031684900EF
:100D3000B0FBF1F707E009EBC90000EB09103168DF
:100D40008900B0FBF1F76420B7FBF0F00401200943
:100D5000642101FB1078A88900F4004040B13220E2
:100D600000EBC800B0FBF1F000F00700044308E01E
:100D7000322000EB08106421B0FBF1F000F00F000E
:100D800004432C81BDE8FF8700100140001401409E
:100D900001468888C0F30800704700BFFEE702E004
:100DA00008C8121F08C1002AFAD1704770470020F6
:100DB00001E001C1121F002AFBD1704770B5044643
:100DC0004FF4077094FBF0F0C6B24FF4077094FB39
:100DD000F0F100FB114085B205E04FF4077000F020
:100DE00009F8701EC6B2002EF7D115B1284600F0E2
:100DF00001F870BD0146114A12884A434FF0E023C2
:100E00005A6100229A611A46126942F001021A617F
:100E100000BF4FF0E022106900F001021AB100F4A7
:100E20008032002AF5D04FF0E022126922F0010250
:100E30004FF0E0231A6100229A61704712000020EF
:100E400008B50025A820FFF7DBFD4FF4A060FFF7F1
:100E50009DFCFFF72FFC4FF4E130FFF767FEFFF733
:100E6000B7FB41F28830264B264A510600902648AF
:100E7000FFF7FCFA2248FFF72AFD40E00020FFF7C9
:100E8000C9FB0446012C25D1012280211D48001FE9
:100E9000FFF7BBFE41F288311B48FFF7D1FA17E09C
:100EA0004FF020511848FFF77BFA28B14FF020513E
:100EB0001548FFF799F90CE01448006808B90120BB
:100EC00000E00020114908604FF49670FFF776FFAC
:100ED000E6E700BF681CC5B2142095FBF0F100FBEB
:100EE000115048B90948001F006808B9012000E006
:100EF00000200649091F08600A20FFF75FFFBDE7D1
:100F00001800002004100140B8640240A882424248
:100F1000300F000800000020180000009E0D00089F
:100F2000480F00081800002050180000AE0D0008FF
:100F3000000000000102030401020304060708097F
:080F40000000000000000100A8
:040000050800018965
:00000001FF
