:020000040800F2
:10000000E80400209D010008210B0008DD0900081C
:100010001D0B000887020008C31100080000000043
:10002000000000000000000000000000FD0C0008BF
:100030000109000800000000B10B0008150E0008BF
:10004000B7010008B7010008B7010008B7010008B0
:10005000B7010008B7010008B7010008B7010008A0
:10006000B7010008B7010008B7010008B701000890
:10007000B7010008B7010008B7010008B701000880
:10008000B7010008B7010008B7010008B701000870
:10009000B7010008B7010008B7010008B701000860
:1000A000B7010008B7010008B7010008B701000850
:1000B000B7010008B7010008B7010008B701000840
:1000C000B7010008B7010008B7010008B701000830
:1000D000B7010008BD0E0008B7010008B70100080D
:1000E000B7010008B7010008B7010008B701000810
:1000F000B7010008B7010008B7010008B701000800
:10010000B7010008B7010008B7010008B7010008EF
:10011000B7010008B7010008B7010008B7010008DF
:10012000B7010008B7010008B7010008B7010008CF
:10013000B7010008B7010008B7010008B7010008BF
:10014000B7010008B7010008B7010008B7010008AF
:10015000B7010008B7010008B7010008B70100089F
:10016000B7010008B7010008B7010008B70100088F
:10017000B7010008B7010008B7010008B70100087F
:10018000B7010008B7010008DFF80CD000F04AF80A
:100190000048004771150008E80400200648804721
:1001A00006480047FEE7FEE7FEE7FEE7FEE7FEE75C
:1001B000FEE7FEE7FEE7FEE7550E000889010008AE
:1001C0002DE9F05F0546002092469B46884606468C
:1001D000814640241BE0284641464746224600F01F
:1001E00042F853465A46C01A914110D31146184658
:1001F000224600F029F82D1A67EB01084F462246E7
:100200000120002100F020F817EB00094E41201ECC
:10021000A4F10104DFDC484631462A464346BDE8E6
:10022000F09F0000064C074D06E0E06840F0010337
:1002300094E8070098471034AC42F6D3FFF7A8FFC4
:10024000D4160008F4160008202A04DB203A00FA2D
:1002500002F1002070479140C2F1200320FA03F31D
:10026000194390407047202A04DB203A21FA02F01B
:100270000021704721FA02F3D040C2F120029140E0
:1002800008431946704700BFFEE700002DE9F04122
:100290008AB004460D4616461F46DDF8408001210F
:1002A000084600F087FC0121480600F093FC092273
:1002B0000B212A4800F06DFB09220C21274800F091
:1002C00068FB4FF4C050089002208DF824000020F5
:1002D0008DF8260003208DF8250001208DF82700D9
:1002E00008A91E4800F00DFB00208DF81A008DF8BB
:1002F0001B008DF81C0001208DF81D0000208DF8DA
:100300001E008DF81F008DF816808DF817408DF8AF
:1003100018608DF81950ADF8147005A9104800F058
:10032000FBF800208DF80E008DF80F0001208DF8ED
:1003300010000020ADF80400ADF80600ADF808008C
:10034000ADF80A00ADF80C0001208DF8110001A8ED
:1003500000F05EF80AB0BDE8F08100000000024045
:100360000064004030B585B0054600210C4800F01F
:100370005DF910B9002005B030BD6A46002108487B
:1003800000F063F9002404E00DF10B00005D285536
:10039000641C9DF80A00A042F6D89DF80A00EAE71E
:1003A00000640040F0B585B007460D4600241220D9
:1003B0000090019000208DF808008DF809008DF85C
:1003C0000A5000BF05E0395D0DF10B000155601CBE
:1003D00084B2AC42F7DB69460C4800F0AEF9064641
:1003E000002401E0601C84B23146084800F038FA6D
:1003F00018B940F6FF708442F4DB40F6FF70844287
:1004000002DB012005B0F0BD0020FBE700640040E6
:1004100010B50021837A012202FA03F13D4A1268E5
:1004200042F001023B4B1A603A4A1C3212688A437E
:10043000384B1C331A60027BCAB9364A0C32126838
:100440008A43344B0C331A604288C38842EA034320
:10045000304A4032847A42F834300288838842EA53
:1004600003432C4A4032847A02EBC4025360027B7D
:10047000012A19D1274A0C3212680A43254B0C3342
:100480001A604288038842EA0343224A4032847A4F
:1004900042F83430C288838842EA03431D4A40321E
:1004A000847A02EBC4025360C27A3AB9194A121D27
:1004B00012688A43174B1B1D1A6006E0154A121D6D
:1004C00012680A43134B1B1D1A60028932B9114A84
:1004D000143212688A430F4B14331A600289012ABE
:1004E00006D10C4A143212680A430A4B14331A60BC
:1004F000427B012A06D1074A1C3212680A43054B87
:100500001C331A60034A126822F00102014B1A6080
:1005100010BD00000066004030B5024600200023F8
:10052000146824F002041460146844F00104146098
:1005300000E05B1C546804F001041CB94FF6FF7422
:10054000A342F6D1546804F001040CB900206CE019
:100550008C79012C04D1146844F08004146003E009
:10056000146824F080041460CC79012C04D1146840
:1005700044F04004146003E0146824F04004146064
:100580000C7A012C04D1146844F02004146003E0B8
:10059000146824F0200414604C7A012C04D11468EF
:1005A00044F01004146003E0146824F01004146094
:1005B0008C7A012C04D1146844F00804146003E020
:1005C000146824F008041460CC7A012C04D1146857
:1005D00044F00404146003E0146824F0040414607C
:1005E0008C78A407CD7844EA05640D7944EA054483
:1005F0004D7944EA05540D886D1E2C43D46114686E
:1006000024F001041460002300E05B1C546804F033
:1006100001041CB14FF6FF74A342F6D1546804F0F4
:1006200001040CB1002000E0012030BD0246002092
:1006300019B9D36803F0030006E0012903D1136957
:1006400003F0030000E00020704710B500F5D873F8
:1006500003EB01131B6803F004031372137A53B9FD
:1006600000F5D87303EB01131B6840F2FF7404EA32
:100670005353136009E000F5D87303EB01131B68B3
:100680006FF0604404EAD303536000F5D87303EBC2
:1006900001131B6803F00203537200F5D87303EBD8
:1006A00001135B6803F00F03937200F5D87303EB3B
:1006B00001135B681B0AD37400F5D87303EB0113B5
:1006C0009B68D37200F5D87303EB01139B681C0A77
:1006D000147300F5D87303EB01139B681C0C54735F
:1006E00000F5D87303EB01139B681B0E937300F5A1
:1006F000D87303EB0113DB68D37300F5D87303EBF6
:100700000113DB681C0A147400F5D87303EB0113A2
:10071000DB681C0C547400F5D87303EB0113DB6821
:100720001B0E937421B9C36843F02003C36003E038
:10073000036943F02003036110BD10B50246002099
:10074000936803F08063B3F1806F00D110E0936889
:1007500003F00063B3F1006F01D1012008E093685A
:1007600003F08053B3F1805F01D1022000E0042048
:10077000042874D002F5C07303EB00131B6803F068
:10078000010402F5C07303EB00131C600B7A7BB904
:100790004B7A0C8843EA445302F5C07404EB00140E
:1007A0002468234302F5C07404EB0014236010E0B6
:1007B0000B7A4C6843EAC4034C7A234302F5C074B5
:1007C00004EB00142468234302F5C07404EB001406
:1007D00023608B7A03F00F038B7202F5C07303EB77
:1007E00000135B6823F00F0402F5C07303EB0013E2
:1007F0005C6002F5C07303EB00135B688C7A2343E3
:1008000002F5C07404EB001463608B7B1C064B7B09
:1008100044EA03440B7B44EA0323CC7A234302F5E6
:10082000C07404EB0014A3608B7C1C064B7C44EA70
:1008300003440B7C44EA0323CC7B234302F5C074BE
:1008400004EB0014E36002F5C07303EB00131B68B4
:1008500043F0010402F5C07303EB00131C6010BDEC
:1008600010B50246002321B1012907D002290FD17A
:1008700009E090681D4C00EA04030BE090681C4CF2
:1008800000EA040306E090681A4C00EA040301E061
:10089000002300BF00BF184C181BA34216D007DC72
:1008A00083B16FF08060184470B1022818D111E054
:1008B000B0F5007F10D0114C204448B1B0F5003F96
:1008C0000ED10BE002230DE000230BE0002309E032
:1008D000002307E0012305E0012303E0012301E0F9
:1008E000002300BF00BFD8B210BD00000300000409
:1008F0000003000800000310000100080001FFF7DA
:100900007047F0B50A4600210023002400BF3DE0F7
:10091000012505FA01F3156805EA03049C4234D168
:1009200005684F000326BE40B543056015794E00AB
:10093000B5400668354305601579012D02D015795B
:10094000022D16D185684F000326BE40B543856051
:1009500055794E00B5408668354385604568012667
:100960008E40B5434560456896798E40B6B23543B2
:100970004560C5684F000326BE40B543C560D579C4
:100980004E00B540C6683543C560491C1029BFD329
:10099000F0BDF0B5002300244D07ED0E02FA05F37B
:1009A000CE1000F1200555F826504E07F70E0F2601
:1009B000BE40B543CF1000F1200646F82750CE10B8
:1009C00000F1200555F8265045EA0304CE1000F149
:1009D000200545F82640F0BD0183704700BFFEE7C3
:1009E0001CB50121112000F0E5F800208DF804006D
:1009F0001C20009001208DF8070069460748FFF78A
:100A000080FF00208DF804000120009002208DF866
:100A1000070069460248FFF774FF1CBD0010024042
:100A20000000024010B50446012C01D12249087093
:100A30002148007801282AD12048006801280AD0DE
:100A40001F48006838B11E48001F006818B11C48D4
:100A500008380068D8B90A2000F036FD0020164991
:100A6000087016480068012800D110BD14480068BD
:100A700008B90220F9E71248001F006808B90320EE
:100A8000F3E70F4808380068A0B90420EDE70B48E9
:100A9000006878B90A48006801280BD10848001F8F
:100AA0000068012806D1064808380068012801D1ED
:100AB000014908700020D8E71600002000024042DB
:100AC000100242421CB50121202000F073F80120E1
:100AD0008DF804004002009003208DF805000020EE
:100AE0008DF8060001208DF8070069460A48FFF7D7
:100AF00008FF4FF400710848FFF76EFF4FF4806065
:100B0000009069460448FFF7FCFE4FF480610248FC
:100B1000FFF762FF1CBD00000014024000BFFEE7AB
:100B20007047000070B5002100230F22C4781CB369
:100B3000174C246804F4E064C4F5E064C4F30721AE
:100B4000C1F10404E3B20A4144789C40E1B28478E4
:100B5000144021430C07210E0E4C05786155047892
:100B600004F01F050124AC4005786D11AD0005F1BE
:100B7000E025C5F8004109E0047804F01F050124D0
:100B8000AC40054D0678761145F8264070BD000052
:100B90000CED00E000E400E080E100E002490143E8
:100BA000024A1160704700000000FA050CED00E0F9
:100BB0007047000029B1064A12680243044B1A60CC
:100BC00004E0034A12688243014B1A607047000038
:100BD0003038024029B1064A12680243044B1A60B9
:100BE00004E0034A12688243014B1A607047000018
:100BF0004038024029B1064A12680243044B1A6089
:100C000004E0034A12688243014B1A6070470000F7
:100C100044380240F0B500210022002402250026BD
:100C20000223324F3F6807F00C0121B1042905D09F
:100C3000082937D105E02E4F076036E02D4F0760B9
:100C400033E02A4F3F1F3F68C7F38056274F3F1FAF
:100C50003F6807F03F036EB1264FB7FBF3F7DFF8AD
:100C60008CC0ACF1040CDCF800C0CCF3881C07FB92
:100C70000CF40CE01E4FB7FBF3F7DFF870C0ACF1DB
:100C8000040CDCF800C0CCF3881C07FB0CF4174FF5
:100C90003F1F3F68C7F301477F1C7D00B4FBF5F79A
:100CA000076002E0124F076000BF00BF0F4F3F68B0
:100CB00007F0F0010909104F7A5C0768D7404760D8
:100CC0000A4F3F6807F4E051890A0B4F7A5C476886
:100CD000D7408760054F3F6807F46041490B064FD6
:100CE0007A5C4768D740C760F0BD00000838024012
:100CF0000024F40000127A00000000207047000079
:100D00000CB50020019000903448006840F4803019
:100D10003249086000BF3148006800F4003000909C
:100D20000198401C0190009818B90198B0F5A04FA7
:100D3000F1D12A48006800F4003010B10120009081
:100D400001E0002000900098012846D1234840305F
:100D5000006840F080502149403108602048006818
:100D600040F440401E4908601C48083000681B4998
:100D7000083108600846006840F4004008600846F2
:100D8000006840F4A05008601648091F0860081F5A
:100D9000006840F08070091F086000BF0F480068BD
:100DA00000F000700028F9D040F205700E4908608C
:100DB0000A480830006820F003000849083108603C
:100DC0000846006840F00200086000BF0348083091
:100DD000006800F00C000828F8D10CBD0038024073
:100DE0000070004008544007003C0240042808D12D
:100DF0004FF0E021096941F004014FF0E022116158
:100E000007E04FF0E021096921F004014FF0E022F2
:100E1000116170477047000010B504466FF0040080
:100E2000FFF7E4FFE11704EB5171C1F3C701074A73
:100E300011701046007800EB4001C1EBC0104FF676
:100E4000FF7101EAC0000249088010BD10000020B7
:100E50001200002010B51548006840F470001349D6
:100E600008601348006840F0010011490860002044
:100E70000F49083108600E4800680E4908400C49C7
:100E800008600D48091D0860081F006820F48020D4
:100E9000091F0860002006490C310860FFF730FF89
:100EA0004FF0006001498039086010BD88ED00E016
:100EB00000380240FFFFF6FE1030002410B540F26B
:100EC00025511D4800F0BAF810B31B4800F070F926
:100ED000C4B21A48008800F40040C8B91748008816
:100EE00000F4804060B10A2C03D000201349088030
:100EF00020E01248008840F400401049088019E0C2
:100F00000D2C06D10D48008840F480400B49088024
:100F100010E00A480088C0F30D0009490C54074846
:100F20000088401C0549088008460088C72801DD64
:100F30000020088010BD00000010014014000020B7
:100F40001C00002010B588B0044601210846FFF7B8
:100F500031FE01211020FFF74DFE07220921244810
:100F6000FFF717FD07220A212148FFF712FD4FF472
:100F7000C060069002208DF81C008DF81D00002036
:100F80008DF81E0001208DF81F0006A91848FFF7F4
:100F9000B8FC02940020ADF80C00ADF80E00ADF8DE
:100FA0001000ADF814000C20ADF8120002A9114891
:100FB00000F094F801210F4800F027F840210D4877
:100FC00000F01AF8012240F225510A4800F060F8BA
:100FD00025208DF8040003208DF805008DF806000B
:100FE00001208DF8070001A8FFF79CFD08B010BD97
:100FF000000002400010014001F40072B2F5007FD1
:1010000000D100BFCA430280704721B1828942F4F7
:101010000052828104E082894DF6FF731A4082817A
:10102000704702460020B1F5007F00D100BF138851
:101030000B400BB1012000E00020704770B5024664
:10104000002400230025002040F66A16B14200D19A
:1010500000BFC1F3421501F01F03012606FA03F396
:10106000012D02D19689334006E0022D02D1168A65
:10107000334001E0968A33400C12012606FA04F44C
:101080001688344013B10CB1012000E0002070BD7F
:10109000F0B50346002400260025002040F66A171C
:1010A000B94200D100BF1846C1F3421401F01F0637
:1010B000012707FA06F5012C01D10C3004E0022CBF
:1010C00001D1103000E014301AB107682F430760D7
:1010D00002E00768AF430760F0BD00002DE9FF475D
:1010E00005460E460024A14600BFA046B08900B1C7
:1010F00000BF2C8A24F44054F08804432C82AC892D
:1011000041F20C608443B0883189084371890843F7
:101110000443AC81AC8A24F44074B0890443AC82AB
:101120006846FFF777FD2048854202D01F48854278
:1011300002D1DDF80C9001E0DDF80890A88900F4F8
:10114000004040B109EBC90000EB091031684900CB
:10115000B0FBF1F707E009EBC90000EB09103168BB
:101160008900B0FBF1F76420B7FBF0F0040120091F
:10117000642101FB1078A88900F4004040B13220BE
:1011800000EBC800B0FBF1F000F00700044308E0FA
:10119000322000EB08106421B0FBF1F000F00F00EA
:1011A00004432C81BDE8FF8700100140001401407A
:1011B00001468888C0F308007047C1F308028280A6
:1011C000704700BFFEE700000FB4054B10B503A940
:1011D000044A029800F018F810BC5DF814FB0000F7
:1011E0004D1500081800002002E008C8121F08C1B1
:1011F000002AFAD170477047002001E001C1121F98
:10120000002AFBD1704700002DE9FF4F8DB09B46AF
:101210000F460446002606E025280BD05A460F99B3
:101220009047641C761C20780028F5D111B0304618
:10123000BDE8F08F0025A8460122984900E005434B
:1012400014F8013F203B02FA03F00842F7D120785E
:101250002E2817D114F8010F45F004052A280ED0C6
:101260006FF02F022078A0F1300109290AD808EB8D
:10127000880102EB410100EB0108641CF2E757F81A
:10128000048B641C20786C280DD004DC4C2812D010
:101290006A2811D104E074280DD07A280CD10AE014
:1012A00045F4001507E0617845F48015814202D1CC
:1012B000641C05F58015641C2278692A45D008DC79
:1012C000002AB3D0582A69D0632A10D0642A08D1E2
:1012D0003BE0702A67D0732A13D0752A5CD0782A35
:1012E0005CD010465A460F999047761CD3E017F809
:1012F000040B8DF8000000208DF80100E946012064
:1013000003E057F8049B4FF0FF3069074FF00005EA
:1013100001D40AE06D1C45450DDA8542FADB19F867
:1013200005100029F6D106E06D1C8542FCDB19F89A
:1013300005100029F8D12E4404E019F8010B5A4693
:101340000F9990476D1EF8D2A5E00A200021CDE943
:101350000801C5F3025002280DD001CFC117031EAA
:1013600071F100030DDA4FF0000CD0EB0C006CEBC8
:1013700001012D2308E0FF1D27F00707F7E8020110
:10138000EDE72B0504D52B238DF8283001233BE016
:10139000EB0739D02023F7E70A2000E010200021D6
:1013A000CDE9080107E01020002145F00405CDE952
:1013B00008014FF00808C5F3025002280FD001CFF2
:1013C00000214FF0000A2B071FD5702A0DD0DDE950
:1013D00008C38CF0100C5CEA030C0CD015E0FF1D68
:1013E00027F00707F7E80201EBE740228DF82820F5
:1013F0004FF0010A0BE050EA010306D030238DF8CC
:1014000028308DF8292002239A46582A04D024A295
:101410000DF120090B9209E026A2F9E7DDE9082386
:10142000FEF7CEFE0B9B9B5C09F8013D50EA0102E2
:10143000F4D1ADEB090020300890680701D44FF0DB
:1014400001080899884502DDA8EB010000E00020B2
:101450008046002506E00AA85A46405D0F9990474D
:101460006D1C761C5545F6DB04E030205A460F997A
:101470009047761CB8F10001A8F10108F5DC05E001
:1014800019F8010B5A460F999047761C0899481E87
:1014900008900029F4DC641CC5E60000092801005E
:1014A00030313233343536373839616263646566DA
:1014B000000000003031323334353637383941429C
:1014C000434445460000000070B504464FF40770E1
:1014D00094FBF0F0C6B24FF4077094FBF0F100FB00
:1014E000114085B205E04FF4077000F009F8701E56
:1014F000C6B2002EF7D115B1284600F001F870BD34
:101500000146114A12884A434FF0E0235A610022F3
:101510009A611A46126942F001021A6100BF4FF047
:10152000E022106900F001021AB100F48032002AB2
:10153000F5D04FF0E022126922F001024FF0E023D3
:101540001A6100229A6170471200002070B50446AB
:101550000D46E1B20548FFF730FE00BF8021034889
:10156000FFF75FFD0028F9D0204670BD0010014054
:1015700086B0002700240026A820FFF74DFC4FF47A
:10158000A060FFF70BFBFFF79DFA4FF4E130FFF788
:10159000D9FCFFF725FA0020042308220721009038
:1015A000FEF774FE6AE00020FFF73CFA0546012DC5
:1015B00012D106B900E000200646042308220721C4
:1015C00000200096FEF762FE1EB92DA0FFF7FCFD7D
:1015D00002E02FA0FFF7F8FD032D24D1002403E043
:1015E00004A80455601CC4B2082CF9DB082104A827
:1015F000FEF7D8FE8046B8F1000F03D028A0FFF711
:10160000E3FD10E02AA0FFF7DFFD002406E004A8B8
:10161000015D2AA0FFF7D8FD601CC4B2082CF6DBE0
:1016200022A0FFF7D1FD02A8FEF79CFE8046B8F18C
:10163000000F10D023A0FFF7C7FD002406E002A88A
:10164000015D1EA0FFF7C0FD601CC4B2082CF6DBD4
:1016500016A0FFF7B9FD781CC7B2142097FBF0F174
:1016600000FB117038B91A48006808B9012000E081
:101670000020174908600A20FFF726FF93E70000C3
:101680004E6F726D616C204D6F64650D0A00000035
:101690004C6F6F704261636B204D6F64650D0A0083
:1016A00053656E64204661696C6564210D0A000013
:1016B000B7A2CBCDCAFDBEDDA3BA000025582020BD
:1016C00000000000BDD3CAD5CAFDBEDDA3BA00002C
:1016D000A4824242F4160008000000201C00000012
:1016E000E8110008101700081C000020CC040000BE
:1016F000F8110008000000000102030401020304C5
:1017000006070809000000000000010000000000BA
:040000050800018965
:00000001FF
