:020000040800F2
:10000000F81400209D010008490C0008FB070008B7
:10001000450C00088702000897190008000000003E
:10002000000000000000000000000000D90F0008E0
:100030008B02000800000000D90C0008F110000835
:10004000B7010008B7010008B7010008B7010008B0
:10005000B7010008B7010008B7010008B7010008A0
:10006000B7010008B7010008B7010008B701000890
:10007000B7010008B7010008B7010008B701000880
:10008000B7010008B7010008B7010008B701000870
:10009000B7010008B7010008B7010008B701000860
:1000A000B7010008B7010008B7010008B701000850
:1000B000B7010008B7010008B7010008B701000840
:1000C000B7010008B7010008B7010008B701000830
:1000D000B701000891160008B7010008B701000831
:1000E000B7010008B7010008B7010008B701000810
:1000F000B7010008B7010008B7010008B701000800
:10010000B7010008B7010008B7010008B7010008EF
:10011000B7010008B7010008B7010008B7010008DF
:10012000B7010008B7010008B7010008B7010008CF
:10013000B7010008B7010008B7010008B7010008BF
:10014000B7010008B7010008B7010008B7010008AF
:10015000B7010008B7010008B7010008B70100089F
:10016000B7010008B7010008B7010008B70100088F
:10017000B7010008B7010008B7010008B70100087F
:10018000B7010008B7010008DFF80CD000F05AF8FA
:1001900000480047451D0008F81400200648804725
:1001A00006480047FEE7FEE7FEE7FEE7FEE7FEE75C
:1001B000FEE7FEE7FEE7FEE73111000889010008CF
:1001C0002DE9F05F0546002092469B46884606468C
:1001D000814640241BE0284641464746224600F01F
:1001E00020F853465A46C01A914110D3114618467A
:1001F000224600F039F82D1A67EB01084F462246D7
:100200000120002100F030F817EB00094E41201EBC
:10021000A4F10104DFDC484631462A464346BDE8E6
:10022000F09F202A04DB203A21FA02F000217047D7
:1002300021FA02F3D040C2F120029140084319464E
:1002400070470000064C074D06E0E06840F00103EF
:1002500094E8070098471034AC42F6D3FFF798FFB4
:100260000469000824690008202A04DB203A00FA07
:1002700002F1002070479140C2F1200320FA03F3FD
:1002800019439040704700BFFEE7704710B5044621
:10029000214610A001F082FB240300F035F900F0A4
:1002A000CDF800200D490860202000F02DFEC4F399
:1002B000074000F029FEC4F3072000F025FEE0B25D
:1002C00000F022FE01200649C1F8B80200F0B6F89D
:1002D00010BD000066653A25780D0A00B8824042DC
:1002E000008040421CB50121022000F0F7FC0121F2
:1002F000402000F0F3FC4FF48040009001208DF886
:10030000040000208DF8060003208DF80500012070
:100310008DF8070069460F4800F002FA802000902F
:1003200069460D4800F0FCF980210B4800F063FAA3
:1003300001200A49086000F085FD002000F000FE61
:1003400000F042F8064908800846018805A001F03F
:1003500025FB1CBD0004024000180240B882404248
:1003600022000020454E32355158585F54595045AF
:100370003D25580D0A0000002DE9F04106460C46C7
:10038000174600200F490860032000F0BDFDC4F3AC
:10039000074000F0B9FDC4F3072000F0B5FDE0B25E
:1003A00000F0B2FD002505E0FF2000F0ADFD705526
:1003B000681C85B2BD42F7DB012002490860BDE838
:1003C000F0810000B882404210B5002400200E49A0
:1003D0000860902000F098FD002000F095FD0020BE
:1003E00000F092FD002000F08FFDFF2000F08CFD5A
:1003F00044EA0024FF2000F087FD04430120034964
:10040000C1F8B802204610BDB88240420080404288
:1004100010B50024002007490860052000F074FD95
:10042000FF2000F071FD044601200349C1F8B80225
:10043000204610BDB88240420080404210B500BF47
:10044000FFF7E6FF00F001000028F9D110BD000021
:100450002DE9F05F81460F461646DFF8A8B04FEA57
:100460001738C7F30B0ACAF58054A64200DC34469D
:1004700044E04FEA08314FF480525846FFF77CFFC2
:10048000002508E00AEB05001BF80000FF2800D05B
:1004900003E0681C85B2A542F4DB00BFA54216DA72
:1004A0004046FFF7F3FE002507E019F8050005EBCD
:1004B0000A010BF80100681C85B2A542F5DB4FEA82
:1004C00008314FF48052584600F02EF804E02246DE
:1004D0003946484600F028F8A64200D10FE008F15E
:1004E00001084FF0000AA1442744301B86B2B6F53C
:1004F000805F02DD4FF4805400E03446B9E700BF6E
:10050000BDE8F09FF400002010B500200449086009
:10051000062000F0F9FC01200249C1F8B80210BD24
:10052000B8824042008040422DE9F04107460E4625
:100530001446F0B2C0F58075AC4200DC254612E0EE
:100540002A463146384600F013F8AC4200D10BE0A1
:100550002F442E44601B84B2B4F5807F02DD4FF43B
:10056000807500E02546EBE700BFBDE8F0810000A4
:100570002DE9F04106460C461746FFF7C5FF00205F
:100580000F490860022000F0BFFCC4F3074000F0F0
:10059000BBFCC4F3072000F0B7FCE0B200F0B4FCF1
:1005A000002504E0705D00F0AFFC681C85B2BD4220
:1005B000F8DB012002490860FFF740FFBDE8F08149
:1005C000B882404251B18200A2F1C042126842F0AA
:1005D00001038200A2F1C042136009E08200A2F18F
:1005E000C0421268034B1A408300A3F1C0431A6053
:1005F00070470000FEFF0F0030B5002100220023ED
:100600000468A400A4F1C0442168444C2140D0E90E
:1006100001452C43C5682C4305692C4345692C438F
:1006200085692C43C5692C43056A2C43456A2C43D4
:10063000856A2C43C56A2C43056B2C43214304680F
:10064000A400A4F1C04421608468082C0BD1046884
:10065000A400A4F1C044246844F040050468A40048
:10066000A4F1C04425600468641CA400A4F1C04443
:10067000226802F04042446B2468456B6D6844EA8E
:100680000514456BAD6844EA0524456BAD8944EA21
:100690000544456B2D8A44EA0554456B2D7D44EA9B
:1006A0000564456BAD692C4322430468641CA400B7
:1006B000A4F1C0442260C46AB4F5804F24D1046818
:1006C000A400A4F1C044D4F8043103F04043846B87
:1006D0002468856B6D6844EA0514856BAD6844EA4F
:1006E0000524856B2D8A44EA0554856B2D7D44EAEB
:1006F0000564856BAD692C4323430468A400A4F111
:10070000C044C4F8043107E06FF070450468A400E9
:10071000A4F1C044C4F8045130BD00008000F7FFCC
:10072000F0B50A4600210023002400BF3DE001256A
:1007300005FA01F3156805EA03049C4234D1056803
:100740004F000326BE40B543056015794E00B54005
:100750000668354305601579012D02D01579022D03
:1007600016D185684F000326BE40B5438560557994
:100770004E00B540866835438560456801268E4049
:10078000B5434560456896798E40B6B235434560BD
:10079000C5684F000326BE40B543C560D5794E00FD
:1007A000B540C6683543C560491C1029BFD3F0BDAC
:1007B000F0B5002300244D07ED0E02FA05F3CE102C
:1007C00000F1200555F826504E07F70E0F26BE40C3
:1007D000B543CF1000F1200646F82750CE1000F1A7
:1007E000200555F8265045EA0304CE1000F12005F7
:1007F00045F82640F0BD0183704700BFFEE70000CA
:100800001CB50121112000F069FA00208DF80400C8
:100810001C20009001208DF8070069460748FFF76B
:100820007FFF00208DF804000120009002208DF849
:10083000070069460248FFF773FF1CBD0010024025
:100840000000024010B50446012C01D12249087075
:100850002148007801282AD12048006801280AD0C0
:100860001F48006838B11E48001F006818B11C48B6
:1008700008380068D8B90A2001F010FA002016499B
:10088000087016480068012800D110BD144800689F
:1008900008B90220F9E71248001F006808B90320D0
:1008A000F3E70F4808380068A0B90420EDE70B48CB
:1008B000006878B90A48006801280BD10848001F71
:1008C0000068012806D1064808380068012801D1CF
:1008D000014908700020D8E72400002000024042AF
:1008E0001002424270B506460F484088401E83B24F
:1008F0000D480088401E82B20021084600F048F8EA
:1009000000240CE0002504E0304600F069F9681C82
:1009100085B205484088A842F6DC601C84B20248D3
:100920000088A042EEDC70BD1A00002000B502462F
:100930000F4882716AB9362000F046F9002000F0B5
:1009400049F94FF4F0700A4948804FF4A0700880CC
:100950000CE0362000F038F9602000F03BF94FF44D
:10096000A070034948804FF4F070088000BD00007B
:100970001A00002070B504460D4616462B46224646
:100980002946204600F004F8304600F029F970BDF1
:1009900070B504460D462A2000F016F92646E117E8
:1009A00004EB1161C1F30F2000F014F9E11704EB1F
:1009B00011610912A4EB012188B200F00BF916466F
:1009C000D11702EB1161C1F30F2000F003F91646B5
:1009D000D11702EB11610912A2EB012188B200F0DC
:1009E000F9F82B2000F0F0F82E46E91705EB11611D
:1009F000C1F30F2000F0EEF8E91705EB11610912C1
:100A0000A5EB012188B200F0E5F81E46D91703EBEB
:100A10001161C1F30F2000F0DDF81E46D91703EB7A
:100A200011610912A3EB012188B200F0D3F82C2048
:100A300000F0CAF870BD00002DE9F84F80460E4660
:100A400017461C46B3462046E31704EB5373DB10EE
:100A500021464FEAE47C04EB5C7C4FEAEC0CA4EB0F
:100A6000CC0CBCF1000F02D04FF0010C01E04FF0B4
:100A7000000C6344224604EBD27C4FEA6C0C03FB6F
:100A80000CF3DBB20093A7F12000C7B2002556E0BB
:100A90000C2C07D107EB47002B4901EB800010F825
:100AA000059013E0102C05D1284800EB071010F832
:100AB00005900BE0182C07D107EBC700244901EB88
:100AC000800010F8059001E0BDE8F88F4FF0000AB3
:100AD0002FE009F0800030B11E48028831464046C0
:100AE000FFF748FF07E00A9828B91B4802883146FB
:100AF0004046FFF73FFF4FEA49604FEA1069701C1C
:100B000086B216484088B04200DCDDE7A6EB0B0059
:100B1000A0420AD15E4608F101001FFA80F80F4892
:100B20000088404500DCCFE706E00AF1010000F054
:100B3000FF0ABAF1080FCCDB00BF681CC5B20098F1
:100B40008542A5DB00BFBFE7EC1F0008602400085A
:100B5000502A000816000020180000201A0000206B
:100B60002DE9F84704460D4690469946DDE90967A8
:100B700004F0FF0A08EB04001FFA80F809EB0500F7
:100B80001FFA80F916E0444502DB5446A81985B2E5
:100B90004D4500DB14E0002000903A7833462946AA
:100BA0002046FFF749FF304606EBD07104EB6101A8
:100BB0008CB27F1C38787E2802DC38782028E2DA74
:100BC00000BFBDE8F88700000149088070470000B9
:100BD0007E00006C01490880704700008000006CB6
:100BE00001490880704700008000006C1CB501219D
:100BF000202000F073F801208DF8040040020090DE
:100C000003208DF8050000208DF8060001208DF8E6
:100C1000070069460A48FFF783FD4FF40071084852
:100C2000FFF7E9FD4FF48060009069460448FFF744
:100C300077FD4FF480610248FFF7DDFD1CBD000029
:100C40000014024000BFFEE77047000070B50021AD
:100C500000230F22C4781CB3174C246804F4E0640A
:100C6000C4F5E064C4F30721C1F10404E3B20A410E
:100C700044789C40E1B28478144021430C07210E53
:100C80000E4C05786155047804F01F050124AC4032
:100C900005786D11AD0005F1E025C5F8004109E0CA
:100CA000047804F01F050124AC40054D0678761148
:100CB00045F8264070BD00000CED00E000E400E0C7
:100CC00080E100E002490143024A116070470000E0
:100CD0000000FA050CED00E07047000029B1064A5B
:100CE00012680243044B1A6004E0034A126882430C
:100CF000014B1A60704700003038024029B1064AA3
:100D000012680243044B1A6004E0034A12688243EB
:100D1000014B1A60704700003838024029B1064A7A
:100D200012680243044B1A6004E0034A12688243CB
:100D3000014B1A60704700004438024029B1064A4E
:100D400012680243044B1A6004E0034A12688243AB
:100D5000014B1A607047000024380240F0B50021B2
:100D600000220024022500260223324F3F6807F0AC
:100D70000C0121B1042905D0082937D105E02E4FF7
:100D8000076036E02D4F076033E02A4F3F1F3F6872
:100D9000C7F38056274F3F1F3F6807F03F036EB1F0
:100DA000264FB7FBF3F7DFF88CC0ACF1040CDCF88E
:100DB00000C0CCF3881C07FB0CF40CE01E4FB7FB03
:100DC000F3F7DFF870C0ACF1040CDCF800C0CCF332
:100DD000881C07FB0CF4174F3F1F3F68C7F3014700
:100DE0007F1C7D00B4FBF5F7076002E0124F07603F
:100DF00000BF00BF0F4F3F6807F0F0010909104F17
:100E00007A5C0768D74047600A4F3F6807F4E051B3
:100E1000890A0B4F7A5C4768D7408760054F3F6867
:100E200007F46041490B064F7A5C4768D740C760BA
:100E3000F0BD0000083802400024F40000127A00DF
:100E40000000002000B587B001210220FFF746FF17
:100E500001210803FFF762FF052203212848FFF75D
:100E6000A7FC052204212648FFF7A2FC0522114613
:100E70002348FFF79DFC3820059002208DF81800CC
:100E800000208DF81A0003208DF8190001208DF83C
:100E90001B0005A91A48FFF743FC01210803FFF7CF
:100EA0004DFF00214FF48050FFF748FF0020ADF8C0
:100EB00000004FF48270ADF802000020ADF804008D
:100EC0000220ADF806000120ADF808004002ADF8A0
:100ED0000A003820ADF80C000020ADF80E00072005
:100EE000ADF810006946074800F058F801210548A0
:100EF00000F03AF8FF2000F007F807B000BD00004E
:100F0000000402400030014010B5044600BF022139
:100F10000A4800F035F80028F9D02146074800F0CB
:100F20003BF800BF0121054800F02AF80028F9D05D
:100F3000024800F02EF8C0B210BD000000300140A1
:100F400010B50446074800884FF6C77108400549A8
:100F5000088008460088204308800121014800F0ED
:100F600003F810BD0030014021B1028842F0400278
:100F7000028004E002884FF6BF731A400280704777
:100F80000246002013890B400BB1012000E0002035
:100F900070470146888970478181704710B50022EB
:100FA000028802F441520B884C8823438C882343E7
:100FB000CC8823430C8923434C8923438C892343C6
:100FC000CC8923431A430280838B4FF2FF74234062
:100FD00083830B8A038210BD704700000CB500208C
:100FE000019000903448006840F480303249086035
:100FF00000BF3148006800F4003000900198401CA8
:101000000190009818B90198B0F5A04FF1D12A4885
:10101000006800F4003010B10120009001E00020D1
:1010200000900098012846D123484030006840F0E5
:1010300080502149403108602048006840F4404019
:101040001E4908601C48083000681B4908310860C8
:101050000846006840F4004008600846006840F414
:10106000A05008601648091F0860081F006840F07B
:101070008070091F086000BF0F48006800F0007012
:101080000028F9D040F205700E4908600A4808307F
:10109000006820F00300084908310860084600682D
:1010A00040F00200086000BF03480830006800F00C
:1010B0000C000828F8D10CBD003802400070004038
:1010C00008544007003C0240042808D14FF0E021BA
:1010D000096941F004014FF0E022116107E04FF08F
:1010E000E021096921F004014FF0E022116170470D
:1010F0007047000010B504466FF00400FFF7E4FFEE
:10110000E11704EB5171C1F3C701074A1170104692
:10111000007800EB4001C1EBC0104FF6FF7101EA0F
:10112000C0000249088010BD1000002012000020FD
:1011300010B51548006840F4700013490860134862
:10114000006840F001001149086000200F49083193
:1011500008600E4800680E4908400C4908600D48B8
:10116000091D0860081F006820F48020091F08601E
:10117000002006490C310860FFF730FF4FF0006097
:1011800001498039086010BD88ED00E00038024058
:10119000FFFFF6FE1030002400B59DB00121084687
:1011A000FFF7ACFD0F200790002008906020099009
:1011B00000200A900B900C900D901520009001904B
:1011C00005200290002003900490059006900620D0
:1011D0000E9000200F90109010201190002012907F
:1011E00014901390159016904FF480501790002093
:1011F00018904FF48040199000201A9007A81B9077
:10120000CDF870D00EA8FFF7F7F901210620FFF7FF
:10121000D9F91DB000BD00001CB501217820FFF7F1
:101220005DFD01210220FFF759FD0C220E216248CD
:10123000FFF7BEFA0C220F215F48FFF7B9FA0C2224
:1012400000215D48FFF7B4FA0C2201215A48FFF74C
:10125000AFFA0C2207215948FFF7AAFA0C220821FD
:101260005648FFF7A5FA0C2209215448FFF7A0FAC7
:101270000C220A215148FFF79BFA0C220B214F4800
:10128000FFF796FA0C2211464C48FFF791FA0C2210
:101290000D214A48FFF78CFA0C220E214748FFF730
:1012A00087FA0C220F214548FFF782FA0C22082109
:1012B0004148FFF77DFA0C2209213F48FFF778FAF1
:1012C0000C220A213C48FFF773FA0C2204213A4809
:1012D000FFF76EFA0C2205213748FFF769FA0C2256
:1012E00011463748FFF764FA0C2211463548FFF7DC
:1012F0005FFA4CF23370009002208DF80400002059
:101300008DF8060003208DF8050001208DF80700F8
:1013100069462948FFF704FA4FF6807000900220D2
:101320008DF8040000208DF8060003208DF80500DC
:1013300001208DF8070069462048FFF7F1F94FF4C6
:101340008050009002208DF8040000208DF80600E7
:1013500003208DF8050001208DF807006946184824
:10136000FFF7DEF94FF48050009002208DF8040062
:1013700000208DF8060003208DF8050001208DF86F
:10138000070069460F48FFF7CBF94FF40040009083
:1013900001208DF8040000208DF8060002208DF851
:1013A000050001208DF8070069460748FFF7B8F9E6
:1013B0000120064908601CBD000C024000100240DC
:1013C000001402400018024000040240BC82404267
:1013D00010B5FFF721FFFFF7DFFE322000F05EFCC3
:1013E000D320FFF7F1FBA4480088A4498880A248D5
:1013F00000888880A04800888880084680884FF64A
:10140000FF7101EA00209D498880084680884FF0DE
:10141000D841B1F8801008439849888008468188EF
:1014200097A000F0BBFAFF20FFF7CEFBFF20FFF7ED
:10143000CBFB052000F032FCFF20FFF7C5FBFF20AF
:10144000FFF7C2FBFF20FFF7BFFBFF20FFF7BCFB4E
:101450000A2000F023FCB020FFF7B6FB0020FFF7C6
:10146000B9FBB320FFF7B0FB0220FFF7B3FB00206E
:10147000FFF7B0FB0020FFF7ADFB0020FFF7AAFB52
:10148000C020FFF7A1FB1320FFF7A4FB3B20FFF7D1
:10149000A1FB0020FFF79EFB0020FFF79BFB002035
:1014A000FFF798FB0120FFF795FB0020FFF792FB69
:1014B0004320FFF78FFBC120FFF786FB0820FFF7D3
:1014C00089FB1B20FFF786FB0820FFF783FB082022
:1014D000FFF780FBC420FFF777FB1120FFF77AFBB3
:1014E0000120FFF777FB7320FFF774FB0120FFF764
:1014F00071FBC620FFF768FB0020FFF76BFBC820DD
:10150000FFF762FB0F20FFF765FB0520FFF762FB8B
:101510001420FFF75FFB5C20FFF75CFB0320FFF765
:1015200059FB0720FFF756FB0720FFF753FB10205E
:10153000FFF750FB0020FFF74DFB2320FFF74AFB8E
:101540001020FFF747FB0720FFF744FB0720FFF7BA
:1015500041FB5320FFF73EFB0C20FFF73BFB142021
:10156000FFF738FB0520FFF735FB0F20FFF732FBB5
:101570002320FFF72FFB0020FFF72CFB3520FFF780
:1015800023FB0020FFF726FB4420FFF71DFB002074
:10159000FFF720FB0120FFF71DFBD020FFF714FB16
:1015A0000720FFF717FB0720FFF714FB1D20FFF7AD
:1015B00011FB0320FFF70EFBD120FFF705FB0320F3
:1015C000FFF708FB5B20FFF705FB1020FFF702FB8E
:1015D000D220FFF7F9FA0320FFF7FCFA2420FFF7E7
:1015E000F9FA0420FFF7F6FA2A20FFF7EDFA0020B7
:1015F000FFF7F0FA0020FFF7EDFA0120FFF7EAFA13
:101600003F20FFF7E7FA2B20FFF7DEFA0020FFF775
:10161000E1FA0020FFF7DEFA0120FFF7DBFADF2016
:10162000FFF7D8FA3620FFF7CFFA0020FFF7D2FAFB
:10163000C020FFF7C9FA1320FFF7CCFA3A20FFF7D2
:10164000C3FA5520FFF7C6FA1120FFF7BDFA96201E
:1016500000F024FB2920FFF7B7FA1E2000F01EFB44
:101660002C20FFF7B1FA0020FFF760F94FF6FF706A
:10167000FFF738F910BD00008000006C1A00002050
:10168000204C43442049443A25780D0A00000000CC
:1016900010B540F225511D4800F0BAF810B31B48B0
:1016A00000F070F9C4B21A48008800F40040C8B9CC
:1016B0001748008800F4804060B10A2C03D0002055
:1016C0001349088020E01248008840F40040104987
:1016D000088019E00D2C06D10D48008840F48040A8
:1016E0000B49088010E00A480088C0F30D00094942
:1016F0000C5407480088401C0549088008460088AB
:10170000C72801DD0020088010BD00000010014046
:10171000140000202C00002010B588B004460121E0
:101720000846FFF7DBFA01211020FFF7F7FA07223E
:1017300009212448FFF73CF807220A212148FFF736
:1017400037F84FF4C060069002208DF81C008DF829
:101750001D0000208DF81E0001208DF81F0006A935
:101760001848FEF7DDFF02940020ADF80C00ADF83C
:101770000E00ADF81000ADF814000C20ADF812000A
:1017800002A9114800F094F801210F4800F027F851
:1017900040210D4800F01AF8012240F225510A4874
:1017A00000F060F825208DF8040003208DF8050076
:1017B0008DF8060001208DF8070001A8FFF746FA12
:1017C00008B010BD000002400010014001F400729A
:1017D000B2F5007F00D100BFCA430280704721B13B
:1017E000828942F40052828104E082894DF6FF73BF
:1017F0001A408281704702460020B1F5007F00D177
:1018000000BF13880B400BB1012000E0002070479F
:1018100070B50246002400230025002040F66A1619
:10182000B14200D100BFC1F3421501F01F030126F0
:1018300006FA03F3012D02D19689334006E0022D0A
:1018400002D1168A334001E0968A33400C120126F9
:1018500006FA04F41688344013B10CB1012000E0FC
:10186000002070BDF0B503460024002600250020AE
:1018700040F66A17B94200D100BF1846C1F34214BE
:1018800001F01F06012707FA06F5012C01D10C30E3
:1018900004E0022C01D1103000E014301AB10768C6
:1018A0002F43076002E00768AF430760F0BD000008
:1018B0002DE9FF4705460E460024A14600BFA0467D
:1018C000B08900B100BF2C8A24F44054F08804434E
:1018D0002C82AC8941F20C608443B0883189084382
:1018E000718908430443AC81AC8A24F44074B08904
:1018F0000443AC826846FFF731FA2048854202D0A3
:101900001F48854202D1DDF80C9001E0DDF8089017
:10191000A88900F4004040B109EBC90000EB0910B0
:1019200031684900B0FBF1F707E009EBC90000EBB3
:10193000091031688900B0FBF1F76420B7FBF0F0C3
:1019400004012009642101FB1078A88900F40040FB
:1019500040B1322000EBC800B0FBF1F000F007000E
:10196000044308E0322000EB08106421B0FBF1F0E2
:1019700000F00F0004432C81BDE8FF8700100140F8
:101980000014014001468888C0F308007047C1F385
:1019900008028280704700BFFEE700000FB4054BCD
:1019A00010B503A9044A029800F018F810BC5DF8BD
:1019B00014FB0000211D00082800002002E008C8D8
:1019C000121F08C1002AFAD170477047002001E0B9
:1019D00001C1121F002AFBD1704700002DE9FF4F03
:1019E0008DB09B460F460446002606E025280BD006
:1019F0005A460F999047641C761C20780028F5D130
:101A000011B03046BDE8F08F0025A8460122984964
:101A100000E0054314F8013F203B02FA03F00842BE
:101A2000F7D120782E2817D114F8010F45F00405BE
:101A30002A280ED06FF02F022078A0F1300109295A
:101A40000AD808EB880102EB410100EB0108641C95
:101A5000F2E757F8048B641C20786C280DD004DC66
:101A60004C2812D06A2811D104E074280DD07A28AD
:101A70000CD10AE045F4001507E0617845F48015C3
:101A8000814202D1641C05F58015641C2278692A04
:101A900045D008DC002AB3D0582A69D0632A10D078
:101AA000642A08D13BE0702A67D0732A13D0752AC4
:101AB0005CD0782A5CD010465A460F999047761C25
:101AC000D3E017F8040B8DF8000000208DF801001A
:101AD000E946012003E057F8049B4FF0FF30690707
:101AE0004FF0000501D40AE06D1C45450DDA854232
:101AF000FADB19F805100029F6D106E06D1C8542C5
:101B0000FCDB19F805100029F8D12E4404E019F87F
:101B1000010B5A460F9990476D1EF8D2A5E00A2096
:101B20000021CDE90801C5F3025002280DD001CFF4
:101B3000C117031E71F100030DDA4FF0000CD0EB5A
:101B40000C006CEB01012D2308E0FF1D27F00707B7
:101B5000F7E80201EDE72B0504D52B238DF828309B
:101B600001233BE0EB0739D02023F7E70A2000E010
:101B700010200021CDE9080107E01020002145F0E8
:101B80000405CDE908014FF00808C5F3025002280A
:101B90000FD001CF00214FF0000A2B071FD5702A6C
:101BA0000DD0DDE908C38CF0100C5CEA030C0CD0FE
:101BB00015E0FF1D27F00707F7E80201EBE74022D9
:101BC0008DF828204FF0010A0BE050EA010306D0FF
:101BD00030238DF828308DF8292002239A46582A80
:101BE00004D024A20DF120090B9209E026A2F9E706
:101BF000DDE90823FEF7E4FA0B9B9B5C09F8013D45
:101C000050EA0102F4D1ADEB0900203008906807DA
:101C100001D44FF001080899884502DDA8EB0100C6
:101C200000E000208046002506E00AA85A46405DF4
:101C30000F9990476D1C761C5545F6DB04E030206B
:101C40005A460F999047761CB8F10001A8F1010897
:101C5000F5DC05E019F8010B5A460F999047761C00
:101C60000899481E08900029F4DC641CC5E60000B1
:101C70000928010030313233343536373839616262
:101C80006364656600000000303132333435363726
:101C900038394142434445460000000070B50446CF
:101CA0004FF4077094FBF0F0C6B24FF4077094FB4A
:101CB000F0F100FB114085B205E04FF4077000F031
:101CC00009F8701EC6B2002EF7D115B1284600F0F3
:101CD00001F870BD0146114A12884A434FF0E023D3
:101CE0005A6100229A611A46126942F001021A6191
:101CF00000BF4FF0E022106900F001021AB100F4B9
:101D00008032002AF5D04FF0E022126922F0010261
:101D10004FF0E0231A6100229A6170471200002000
:101D200070B504460D46E1B20548FFF730FE00BF2E
:101D300080210348FFF75FFD0028F9D0204670BDE1
:101D4000001001408AB00025A820FFF7D3F94FF416
:101D5000A060FEF7B7FFFEF749FF4FF4E130FFF751
:101D6000DBFCFFF735FBFEF74BFDFEF7BBFA00206F
:101D70005949088059A01021CDE900105B484388DB
:101D800002880A210846FEF7EBFE59A01021CDE992
:101D900000105648438802881E210A20FEF7E0FE04
:101DA00057A01021CDE90010504843880288322105
:101DB0000A20FEF7D5FE56A01021CDE900104B48B1
:101DC0004388028846210A20FEF7CAFE4FF4784075
:101DD0004149088011E054A0FFF7E0FD59A010210F
:101DE000CDE9001041484388028896210A20FEF779
:101DF000B7FE4FF47A70FFF751FFFEF7E5FAB0F542
:101E0000804FE8D156A0FFF7C9FD5CA01021CDE9B5
:101E1000001036484388028896210A20FEF7A0FE6B
:101E20005CA01021CDE90010304843880288AA2127
:101E30000A20FEF795FE5AA01021CDE900102B488C
:101E400043880288BE210A20FEF78AFE42E0002075
:101E5000FEF7F8FC0446012C13D110220021534850
:101E6000FEF7F6FA514952A0FFF798FD20A0102185
:101E7000CDE900101D4843880288AA216220FEF7A0
:101E80006FFE022C13D11022002102A8FEF774FA73
:101E900002A94CA0FFF782FD02A81021CDE9001095
:101EA000124843880288BE216220FEF759FE681C52
:101EB000C5B2142095FBF0F100FB115038B946482B
:101EC000006808B9012000E00020434908600A20AA
:101ED000FFF7E4FEBBE70000160000205052454328
:101EE00048494E2053544D33324634001A000020E6
:101EF0007777772E7072656368696E2E6E657400F1
:101F0000464C4153482D535049205465737400008A
:101F10004B5F55503A57726974652020204B4559E4
:101F2000303A526561640000454E323551313238E5
:101F300020436865636B204661696C6564210D0A06
:101F400000000000454E323551313238204368657B
:101F5000636B204661696C656421202000000000ED
:101F6000454E32355131323820436865636B20531A
:101F7000756363657373210D0A000000454E3235A9
:101F80005131323820436865636B20537563636554
:101F900073732100577269746520446174613A005B
:101FA000526561642044617461203A00DC1F0008BE
:101FB000B7A2CBCDB5C4CAFDBEDDA3BA25730D0A49
:101FC00000000000BDD3CAD5B5C4CAFDBEDDA3BAAA
:101FD00025730D0A00000000A48242427777772E15
:101FE0007072656368696E2E6E6574000000000093
:101FF0000000000000000000000000003F40000062
:1020000000000000000030004000300040000000F0
:1020100009000BC03D000BC03D00090018C0244062
:102020007FE0224031800000180024C01B000D809A
:102030003240018003801C4027401C800740004044
:102040001000600000000000000000000000000020
:1020500000001F80204040200000402020401F80C2
:1020600000000000090006001F80060009000000B3
:10207000040004003F800400040000000010006021
:102080000000000000000000040004000400040040
:1020900004000000000000400000000000000000FC
:1020A000002001C006003800400000001F802040D2
:1020B000204020401F800000000010403FC0004032
:1020C0000000000018C021402240244018400000B9
:1020D00010802040244024401B80000002000D009E
:1020E00011003FC0014000003C80244024402440B7
:1020F000238000001F8024402440344003800000DF
:102100003000200027C03800200000001B80244041
:10211000244024401B8000001C0022C0224022409A
:102120001F800000000000000840000000000000C8
:102130000000000004600000000000000000040037
:102140000A00110020804040090009000900090030
:102150000900000000004040208011000A00040037
:102160001800200023402400180000001F80204099
:10217000274029401F400000004007C039000F00E1
:1021800001C0004020403FC0244024401B8000008C
:102190001F802040204020403080000020403FC071
:1021A000204020401F80000020403FC024402E409F
:1021B00030C0000020403FC024402E00300000000E
:1021C0000F001080204022403380020020403FC09A
:1021D000040004003FC02040204020403FC0204079
:1021E000204000000060202020203FC02000200070
:1021F00020403FC024400B0030C0204020403FC062
:1022000020400040004000C03FC03C0003C03C00F4
:102210003FC0000020403FC00C4023003FC02000D2
:102220001F802040204020401F80000020403FC0F1
:1022300024402400180000001F802140214020E09D
:102240001FA0000020403FC02440260019C00040CD
:1022500018C024402440224031800000300020403B
:102260003FC020403000000020003F800040004080
:102270003F80200020003E0001C007003800200001
:10228000380007C03C0007C038000000204039C0BB
:10229000060039C0204000002000384007C0384008
:1022A00020000000304021C02640384020C00000FF
:1022B000000000007FE0402040200000000070008F
:1022C0000C000380004000000000402040207FE020
:1022D000000000000000200040002000000000007E
:1022E000001000100010001000100010000000008E
:1022F0004000000000000000000002800540054092
:1023000003C0004020003FC00440044003800000A0
:1023100000000380044004400640000000000380E9
:10232000044024403FC000400000038005400540B9
:1023300003400000000004401FC02440244020004F
:10234000000002E0055005500650042020403FC028
:102350000440040003C000400000044027C00040C7
:102360000000000000100010041027E00000000032
:1023700020403FC00140070004C0044020402040EE
:102380003FC000400040000007C0040007C0040038
:1023900003C00000044007C00440040003C0004024
:1023A000000003800440044003800000041007F094
:1023B00004500440038000000000038004400450E7
:1023C00007F00010044007C00240040004000000B1
:1023D000000006400540054004C000000000040065
:1023E0001F800440004000000400078000400440BB
:1023F00007C000400400070004C00180060004007C
:10240000060001C0070001C006000000044006C02D
:10241000010006C0044000000410071004E0018021
:10242000060004000000044005C00640044000000F
:102430000000000004007BE04020000000000000DD
:102440000000FFF000000000000040207BE00400DE
:1024500000000000400080004000200020004000FC
:10246000000000000000000000000000000000006C
:102470000000000000001FCC000C00000000000065
:10248000000008003000600008003000600000001C
:10249000022003FC1E20022003FC1E20022000005C
:1024A00000000E1811043FFF10840C78000000009B
:1024B0000F0010840F3800C00778188400780000DF
:1024C00000780F8410C411240E9800E400840008E2
:1024D000080068007000000000000000000000001C
:1024E00000000000000007E018182004400200006F
:1024F000000040022004181807E00000000000005F
:102500000240024001800FF00180024002400000C2
:102510000080008000800FF80080008000800000B4
:102520000001000D000E000000000000000000008F
:10253000000000800080008000800080008000801B
:102540000000000C000C0000000000000000000073
:10255000000000060018006001800600180020003E
:10256000000007F0080810041004080807F0000035
:102570000000080408041FFC000400040000000020
:1025800000000E0C10141024104411840E0C0000D6
:1025900000000C1810041104110412880C700000C3
:1025A000000000E00320042408241FFC0024000095
:1025B00000001F981084110411041088107000008E
:1025C000000007F00888110411041888007000004A
:1025D00000001C00100010FC13001C001000000084
:1025E00000000E3811441084108411440E3800008D
:1025F00000000700088C10441044088807F0000011
:10260000000000000000030C030C000000000000AC
:1026100000000000000101060000000000000000B2
:10262000000000800140022004100808100400008F
:1026300002200220022002200220022002200000AC
:10264000000010040808041002200140008000006F
:1026500000000E001200100C106C10800F00000023
:1026600003E00C1813E4142417C4082807D0000052
:102670000004003C03C41C40074000E4001C0004AC
:1026800010041FFC1104110411040E8800700000D6
:1026900003E00C1810041004100410081C100000B3
:1026A00010041FFC100410041004080807F00000B8
:1026B00010041FFC1104110417C4100408180000B2
:1026C00010041FFC1104110017C0100008000000C6
:1026D00003E00C181004100410441C7800400000A3
:1026E00010041FFC10840080008010841FFC100464
:1026F0000000100410041FFC10041004000000006F
:1027000000030001100110011FFE10001000000066
:1027100010041FFC110403801464181C1004000032
:1027200010041FFC1004000400040004000C00004E
:1027300010041FFC1F0000FC1F001FFC1004000001
:1027400010041FFC0C04030000E010181FFC100014
:1027500007F00808100410041004080807F000002F
:1027600010041FFC10841080108010800F000000E7
:1027700007F0081810241024101C080A07F20000A3
:1027800010041FFC1104110011C011300E0C0004C4
:1027900000000E1C11041084108410441C3800002A
:1027A0001800100010041FFC100410001800000096
:1027B00010001FF810040004000410041FF810009B
:1027C00010001E0011E0001C007013801C0010009F
:1027D0001FC0103C00E01F0000E0103C1FC00000C4
:1027E0001004180C163401C001C01634180C100463
:1027F00010001C00130400FC13041C001000000057
:102800000804101C1064108413041C041018000029
:102810000000000000007FFE400240024002000075
:10282000000030000C0003800060001C000300006A
:1028300000004002400240027FFE00000000000055
:102840000000000020004000400040002000000088
:102850000001000100010001000100010001000170
:1028600000004000400020000000000000000000C8
:1028700000000098012401440144014400FC0004CC
:1028800010001FFC00880104010400880070000093
:1028900000000070008801040104010400880000A9
:1028A0000000007000880104010411081FFC0004EE
:1028B000000000F8014401440144014400C8000044
:1028C0000000010401040FFC1104110411001800A0
:1028D000000000D601290129012901C901060000D3
:1028E00010041FFC008401000100010400FC00042E
:1028F00000000104190419FC000400040000000099
:102900000000000300010101190119FE0000000090
:1029100010041FFC0024004001B4010C010400005D
:102920000000100410041FFC00040004000000005C
:10293000010401FC0104010001FC0104010000FC90
:10294000010401FC008401000100010400FC0004FA
:10295000000000F8010401040104010400F8000073
:10296000010101FF008501040104008800700000DE
:1029700000000070008801040104010501FF00014E
:102980000104010401FC0084010401000180000035
:10299000000000CC0124012401240124019800003E
:1029A00000000100010007F801040104000000001C
:1029B000010001F8000400040004010801FC000407
:1029C000010001800170000C001001600180010015
:1029D00001F0010C003001C00030010C01F00100D9
:1029E00000000104018C00740170018C01040000DE
:1029F000010101810171000E0018016001800100D8
:102A000000000184010C013401440184010C000028
:102A1000000000000000000001003EFC40024002F7
:102A20000000000000000000FFFF000000000000A8
:102A30000000400240023EFC0100000000000000D7
:102A40000000600080008000400040002000200066
:102A50000000000000000000000000000000000076
:102A60000000000000000000000000000000000066
:102A70000000000000000000000000000000000056
:102A80000000000F80380FFE380F80380000000073
:102A90000000000000000000000000000000010035
:102AA000000600000C0000380000310000060000A5
:102AB0000C000038000030000000000000000000A2
:102AC00061800067F807F980006180006180006123
:102AD000800061800067F807F980006180000000D5
:102AE00000000000000001C0E003E0F00630080430
:102AF00018081FFFFE040E080787F00381E000009E
:102B00000000000001F000060C00040408060C7030
:102B100001F9C0000E00003BE000EC1807080804B3
:102B20000C180003E00000000001E00007F003F8CB
:102B300018041C0804170807E1D003C0E00023B004
:102B4000003C080020080000100000000000000108
:102B500000003100003200001C00000000000000F6
:102B60000000000000000000000000000000000065
:102B70000000000000000000000000000000000055
:102B80007F0001FFC00780F00C0018100004200037
:102B9000020000000000002000021000040C0018D9
:102BA0000780F001FFC0007F00000000000000006F
:102BB000000000000000000000000000420000666D
:102BC00000006600003C0000180003FFC000180071
:102BD000003C0000660000660000420000000000AB
:102BE000080000080000080000080000080001FFBD
:102BF000C0000800000800000800000800000800ED
:102C000000000000000100003100003200001C0044
:102C100000000000000000000000000000000000B4
:102C2000000000000000000008000008000008008C
:102C3000000800000800000800000800000800006C
:102C40000800000800000000000000000000000074
:102C500038000038000038000000000000000000CC
:102C60000000000000000000000000000000000064
:102C7000000600001C000070000180000E000038FB
:102C80000000C0000700001C000030000000000031
:102C9000000000007F8001FFE00380700600180440
:102CA000000804000806001803807001FFE0007FA0
:102CB0008000000000000000000001000801000882
:102CC00001000803FFF807FFF800000800000800F3
:102CD000000800000000000000000001C03802C031
:102CE00058040098040118040218040418061C185B
:102CF00003F81801E0F800000000000000000001E7
:102D0000C0E003C0F004000804080804080806181E
:102D10000803F41801E7F00001E0000000000000E3
:102D2000000000000300000D000011000061000021
:102D3000810803010807FFF80FFFF80001080001F0
:102D4000080000000000000000E007FCD0060808B2
:102D5000061008061008061008061838060FF006B8
:102D600007C0000000000000000000003F8001FFDD
:102D7000E003843002081804100804100804100846
:102D8000071810030FF00007C0000000000000004B
:102D9000000003C0000700000600000600F8060758
:102DA000F806180006E0000700000600000000001A
:102DB00000000001E1E003F7F006341004180804F5
:102DC0001808040C08040C0806161803F3F001C1D7
:102DD000E000000000000000F80003FC30030638AB
:102DE0000402080402080402080404100308F001A5
:102DF000FFC0007F00000000000000000000000095
:102E000000000000000000007038007038007038CA
:102E100000000000000000000000000000000000B2
:102E2000000000000000000000000000301A003028
:102E30001C00000000000000000000000000000076
:102E40000000000000000008000014000022000044
:102E500041000080800100400200200400100800B2
:102E600008000000000000002100002100002100F7
:102E700000210000210000210000210000210000AD
:102E800021000021000000000000000000000800F8
:102E90000804001002002001004000808000410072
:102EA00000220000140000080000000000000003E1
:102EB000C00004C000040000080038080F380808EB
:102EC000380810000C300007E00003C000000000CC
:102ED000000000003F8000FFE0038070020F10063A
:102EE000708804C088048308047F8802C0900301AE
:102EF0002000FE400000080000180001F8003E0815
:102F000001C20007020007E20000FE00001FC80027
:102F100001F800003800000804000807FFF807FF68
:102F2000F804080804080804080804080806180833
:102F300003F41801E7F00001E000000000000000C9
:102F40003F8001FFE00380700200180400080400C5
:102F5000080400080400100600200780C0000000DC
:102F600004000807FFF807FFF8040008040008043D
:102F7000000804001802001003807001FFE0007FC9
:102F80008000000004000807FFF807FFF8040808A5
:102F9000040808040808040808043E080400080699
:102FA000001801006000000004000807FFF807FF98
:102FB000F8040808040800040800040800043E009F
:102FC0000600000600000180000000000000000074
:102FD0003F8001FFE003807006001804000804022F
:102FE000080402080203F00783F000020000020058
:102FF00004000807FFF807FFF804080800080000AD
:10300000080000080000080004080807FFF807FF90
:10301000F804000800000000000004000804000894
:1030200004000807FFF807FFF8040008040008047C
:103030000008000000000000000000000006000082
:103040000700000104000104000104000307FFFE63
:1030500007FFFC040000040000040000040008074F
:10306000FFF807FFF8040C08001800003E0004C732
:10307000800503C80600F8040038040018000008A2
:1030800004000807FFF807FFF80400080000080024
:1030900000080000080000080000080000180000F8
:1030A0006000000004000807FFF807800807FC0024
:1030B000007FC00003F80007C00078000780080701
:1030C000FFF807FFF804000804000807FFF80700EE
:1030D0000803C00000E000003800001E00000700E8
:1030E0000001C00400F007FFF80400000000000029
:1030F0007F8001FFE00380700600180400080400D0
:103100000806001803003001FFE0007F8000000087
:1031100004000807FFF807FFF8040408040400048B
:103120000400040400040400060C0003F80001F08D
:1031300000000000000000007F8001FFE0038070BD
:103140000600880400880400C806003C03003E0115
:10315000FFE6007F8400000004000807FFF807FF77
:10316000F8040808040800040C00040F00040BC055
:103170000610F003F03801E008000008000000012C
:10318000E0F803F030063010041808041808040CA6
:1031900008040C080206180207F00781E00000008E
:1031A000018000060000040000040000040008077D
:1031B000FFF807FFF8040008040000040000060000
:1031C0000001800004000007FFE007FFF004001882
:1031D00000000800000800000800000800000804C3
:1031E000001007FFE004000004000006000007E0F4
:1031F0000007FE00041FE00001F80000380001E0B5
:10320000043E0007C00006000004000004000007A0
:10321000E00007FFC0041FF80007C007F80007FF21
:1032200080043FF80007C004F80007000004000015
:1032300000000004000806001807C07805F1C80067
:103240003E00001F800463E80780F80600180400B1
:103250000800000004000006000007800007E008E6
:10326000047C08001FF80007F800180804E00807AD
:103270000000060000040000000000010008060035
:10328000380400F80403E8040F08047C0805F0087B
:1032900007C00807001804006000000000000000DC
:1032A00000000000000000000000003FFFFE2000C2
:1032B0000220000220000220000220000200000084
:1032C00000000000000008000007000000C000002F
:1032D00038000006000001C000003000000E0000B1
:1032E0000100000000000000000020000220000299
:1032F0002000022000022000023FFFFE000000002C
:1033000000000000000000000000000000000000BD
:103310000008000010000030000020000030000015
:103320001000000800000000000000000000010084
:103330000001000001000001000001000001000088
:103340000100000100000100000100000100000177
:10335000000000000000000000200000200000101D
:10336000000010000000000000000000000000004D
:10337000000000000000000000F00019F8001B1819
:10338000002208002608002408002410003FF8004E
:103390001FF800000800001800000004000007FFEC
:1033A000F80FFFF00018180010080020080020088F
:1033B000003018001FF0000FC000000000000000E7
:1033C00007C0001FF000183000200800200800206F
:1033D00008003C08001C1000006000000000000015
:1033E0000000000007C0001FF0003818002008008F
:1033F000200800200804101007FFF80FFFF000005D
:10340000100000000000000000000007C0001FF0D6
:1034100000123000221800220800220800320800A2
:103420001E10000E20000000000000002000002000
:103430000800200801FFF803FFF806200804200810
:103440000420080720000300000000000000000026
:10345000000E000E6E001FF30031B10020B10020FD
:10346000B1003191001F13002E1E00200E0030000D
:1034700000000004000807FFF80FFFF80010080024
:103480002000002000002008003FF8001FF8000086
:1034900008000000000000000000002008002008D4
:1034A000002008063FF8063FF8000008000008006A
:1034B0000008000000000000000000000000000004
:1034C00003000003002001002001002003063FFE4E
:1034D000063FFC00000000000000000000000004A7
:1034E000000807FFF80FFFF8000188000300002F15
:1034F000C00038F800203800200800000800000054
:103500000000000000000400080400080400080790
:10351000FFF80FFFF8000008000008000008000096
:1035200000000000002008003FF8003FF8001008ED
:10353000002000003FF8003FF800100800200000C5
:103540003FF8003FF8000008000000002008003F9E
:10355000F8003FF8001008001000002000002008CC
:10356000003FF8001FF80000080000000000000005
:1035700007C0000FF00018300030080020080020BD
:1035800008003008001830000FF00007C0000000ED
:10359000000000002001003FFF003FFF001011006D
:1035A0002009002008002008003038001FF0000F1C
:1035B000C00000000000000007C0001FF000381825
:1035C000002008002008002009001011001FFF0043
:1035D0003FFF00000100000000200800200800203C
:1035E00008003FF8003FF800080800100800200815
:1035F000002000003000003000000000000000004B
:103600000000000C78001E18003308002308002179
:10361000080021880021980030F000386000000088
:1036200000000000200000200000200000FFF00348
:10363000FFF80020080020080020080000300000EB
:1036400000000000000000002000003FF0007FF8B4
:10365000000018000008000008002010003FF800DB
:103660007FF000001000000000000000200000308B
:1036700000003C00003F800023F000007800007054
:10368000002380003C0000300000200000200000EB
:103690003C00003FE00023F80000E0002700003E6F
:1036A00000003FE00021F80001E0003E00002000A3
:1036B000000000002008002008003838003E6800A4
:1036C00027800003C8002CF800383800201800209C
:1036D00008000000000000002000003003003C0152
:1036E000003F830023EC000070002380003C0000BA
:1036F0002000002000000000000000000000003852
:10370000080020380020F80023E8002F88003E0839
:1037100000380800201800007000000000000000C1
:10372000000000000000000000000000080000147D
:10373000001FF7FC3000062000020000000000001F
:103740000000000000000000000000000000000079
:103750000000FFFFFF00000000000000000000006C
:103760000000000000000000000020000230000601
:103770001FF7FC001400000800000000000000001B
:1037800000000000000000000000001800006000C1
:103790000040000040000020000010000008000071
:1037A0000400000400000C000010000000000000F5
:1037B0000000000000000000000000000000000009
:1037C00000000000000000000000000000000000F9
:1037D00000000000000000000000000000000000E9
:1037E00000000000000000000000000000000000D9
:1037F00000000000000000000000000000000000C9
:1038000000000000000000000000000000000000B8
:1038100000000000000000000000000000000000A8
:103820000000000000000000000000000000000098
:103830000000000000000000000000000000000088
:103840000000000007F000C007FFE1E007F001E022
:10385000000000C0000000000000000000000000A8
:103860000000000000000000000000000000000058
:103870000000000000000000000000000000000048
:103880000000000000000000000000000000000038
:103890000000000000000000000000000000000028
:1038A0000000000000000000000000000000000018
:1038B000000000000020000001C0000007800000A0
:1038C0001F0000001E0000001C20000001C00000BE
:1038D000078000001F0000001E0000001C00000008
:1038E00000000000000000000000000000000000D8
:1038F00000000000000000000000000000000000C8
:1039000000000000000000000000000000000000B7
:1039100000000000000000000000000000000000A7
:103920000000000000000000000000000000000097
:1039300000180C0000180C0000180FE0001FFC001D
:1039400003F80C0000180C0000180C0000180C0004
:1039500000180C0000180FE0001FFC0003F80C001A
:1039600000180C0000180C0000000000000000000F
:103970000000000000000000000000000000000047
:103980000000000000000000000000000000000037
:103990000000000000000000000000000000000027
:1039A0000000000000000000000000000000000017
:1039B0000000000000000780007807C000FC0640FF
:1039C000010E002003070020020380200FFFFFFCF0
:1039D0000201C0200200E0600130704001F03F8031
:1039E00000F01F00000000000000000000000000C8
:1039F00000000000000000000000000000000000C7
:103A000000000000000000000000000000000000B6
:103A100000000000000000000000000000000000A6
:103A200000000000000000000000000000FE000098
:103A300001FF00000301800002008060030181C0DB
:103A400001FF070000FE18000000E0000003BF00B7
:103A5000000CFFC00071806001C100200301806084
:103A60000000FFC000003F00000000000000000058
:103A70000000000000000000000000000000000046
:103A80000000000000000000000000000000000036
:103A90000000000000000000000000000000000026
:103AA00000000000000000000000000000001F00F7
:103AB00000007FC000FCC0C001FF80600303E02065
:103AC0000202782002061E2003FC074001F003805A
:103AD000000103C000011C600001E0200001002083
:103AE0000001004000000180000000000000000014
:103AF00000000000000000000000000000000000C6
:103B000000000000000000000000000000000000B5
:103B100000000000000000000000000000000000A5
:103B20000000000000000000000000000000000095
:103B3000002000001C6000001C4000001F800000EE
:103B40000F00000000000000000000000000000066
:103B50000000000000000000000000000000000065
:103B60000000000000000000000000000000000055
:103B70000000000000000000000000000000000045
:103B80000000000000000000000000000000000035
:103B90000000000000000000000000000000000025
:103BA0000000000000000000000000000000000015
:103BB0000000000000000000000000000000000005
:103BC00000000000000000000007F800003FFF00B8
:103BD000007807C001C000E00300003004000008C6
:103BE00008000004100000020000000000000000B7
:103BF00000000000000000000000000000000000C5
:103C000000000000000000000000000000000000B4
:103C100000000000000000000000000000000000A4
:103C20000000000000000000000000000000000094
:103C30001000000208000004040000080300003027
:103C400001C000E0007807C0003FFF000007F80057
:103C50000000000000000000000000000000000064
:103C60000000000000000000000000000000000054
:103C70000000000000000000000000000000000044
:103C80000000000000000000000000000000000034
:103C90000000000000000000000000000000000024
:103CA0000000000000000000000000000000000014
:103CB00000000000000C1800000E3800000E380054
:103CC00000063000000360000061438000FFFF80B9
:103CD000006143000003600000063000000E380061
:103CE000000E3800000C180000000000000000006A
:103CF00000000000000000000000000000000000C4
:103D000000000000000000000000000000000000B3
:103D100000000000000000000000000000000000A3
:103D20000000000000000000000000000000000093
:103D30000000000000008000000080000000800003
:103D4000000080000000800000008000007FFF0075
:103D50000000800000008000000080000000800063
:103D60000000800000008000000000000000000053
:103D70000000000000000000000000000000000043
:103D80000000000000000000000000000000000033
:103D90000000000000000000000000000000000023
:103DA0000000000000000000000000000000000013
:103DB00000000001000000E3000000E2000000FC41
:103DC000000000780000000000000000000000007B
:103DD00000000000000000000000000000000000E3
:103DE00000000000000000000000000000000000D3
:103DF00000000000000000000000000000000000C3
:103E000000000000000000000000000000000000B2
:103E100000000000000000000000000000000000A2
:103E20000000000000000000000000000000000092
:103E30000000800000008000000080000000800082
:103E40000000800000008000000080000000800072
:103E50000000800000008000000080000000800062
:103E60000000800000008000000000000000000052
:103E70000000000000000000000000000000000042
:103E80000000000000000000000000000000000032
:103E90000000000000000000000000000000000022
:103EA0000000000000000000000000000000000012
:103EB00000000000000000C0000001E0000001E080
:103EC000000000C000000000000000000000000032
:103ED00000000000000000000000000000000000E2
:103EE00000000000000000000000000000000000D2
:103EF00000000000000000000000000000000000C2
:103F000000000000000000000000000000000000B1
:103F100000000000000000000000000000000000A1
:103F20000000000000000000000000000000000091
:103F30000000000C00000038000000E000000380DA
:103F400000000E00000038000000E00000038000C8
:103F5000000E00000038000000E0000003800000B8
:103F60000E0000001800000000000000000000002B
:103F70000000000000000000000000000000000041
:103F80000000000000000000000000000000000031
:103F90000000000000000000000000000000000021
:103FA0000000000000000000000000000000000011
:103FB00000000000000FF800007FFF0000F0078005
:103FC000018000C003000060020000200200002009
:103FD0000200002003000060018000C000E00380B8
:103FE000007FFF00000FF80000000000000000004C
:103FF00000000000000000000000000000000000C1
:1040000000000000000000000000000000000000B0
:1040100000000000000000000000000000000000A0
:104020000000000000000000000000000000000090
:104030000000000000000000008000200080002040
:10404000008000200080006001FFFFE003FFFFE030
:1040500000000060000000200000002000000020A0
:104060000000000000000000000000000000000050
:104070000000000000000000000000000000000040
:104080000000000000000000000000000000000030
:104090000000000000000000000000000000000020
:1040A0000000000000000000000000000000000010
:1040B00000000000007800E000980160010002604C
:1040C000020004600200086002001060020020602C
:1040D00002004060030080600183006001FE00E098
:1040E000007C0780000000000000000000000000CD
:1040F00000000000000000000000000000000000C0
:1041000000000000000000000000000000000000AF
:10411000000000000000000000000000000000009F
:10412000000000000000000000000000000000008F
:104130000000000000F0078001F007C0010000400F
:1041400002000020020100200201002002010020E4
:10415000030380200186804001FCC0C000787F807E
:1041600000001E0000000000000000000000000031
:10417000000000000000000000000000000000003F
:10418000000000000000000000000000000000002F
:10419000000000000000000000000000000000001F
:1041A000000000000000000000000000000000000F
:1041B00000000800000038000000480000018800EE
:1041C00000060800000C081000300810004008101D
:1041D00001FFFFF003FFFFF003FFFFF000000810F6
:1041E000000008100000081000000000000000009F
:1041F00000000000000000000000000000000000BF
:1042000000000000000000000000000000000000AE
:10421000000000000000000000000000000000009E
:10422000000000000000000000000000000000008E
:104230000000000000000780001F864003E100200E
:1042400003020020030400200304002003040020D4
:104250000304002003060040030301C00301FF80A4
:1042600003007E00000000000000000000000000CD
:10427000000000000000000000000000000000003E
:10428000000000000000000000000000000000002E
:10429000000000000000000000000000000000001E
:1042A000000000000000000000000000000000000E
:1042B000000000000007FC00003FFF000070C3800A
:1042C000008180C001010060030200200202002082
:1042D00002020020020200200203004001C180C04F
:1042E00000C0FF8000007E00000000000000000011
:1042F00000000000000000000000000000000000BE
:1043000000000000000000000000000000000000AD
:10431000000000000000000000000000000000009D
:10432000000000000000000000000000000000008D
:104330000000000000F0000003C000000380000047
:1043400003000000030007E003003FE00301C0009A
:104350000306000003180000036000000380000053
:10436000030000000000000000000000000000004A
:10437000000000000000000000000000000000003D
:10438000000000000000000000000000000000002D
:10439000000000000000000000000000000000001D
:1043A000000000000000000000000000000000000D
:1043B00000001F0000783F8000FC60C0018EC040FC
:1043C00003078020020300200201802002018020D8
:1043D0000201C0200301E040018670C000FC3F8064
:1043E00000781F0000000000000000000000000036
:1043F00000000000000000000000000000000000BD
:1044000000000000000000000000000000000000AC
:10441000000000000000000000000000000000009C
:10442000000000000000000000000000000000008C
:10443000003F000000FF81C001C0C1C0010060203A
:104440000200202002002020020020200200206024
:10445000020040C00100C18000C18F00007FFE004B
:10446000001FF0000000000000000000000000003D
:10447000000000000000000000000000000000003C
:10448000000000000000000000000000000000002C
:10449000000000000000000000000000000000001C
:1044A000000000000000000000000000000000000C
:1044B00000000000000000000000000000000000FC
:1044C00000000000000300C0000781E0000781E059
:1044D000000300C000000000000000000000000019
:1044E00000000000000000000000000000000000CC
:1044F00000000000000000000000000000000000BC
:1045000000000000000000000000000000000000AB
:10451000000000000000000000000000000000009B
:10452000000000000000000000000000000000008B
:10453000000000000000000000000000000000007B
:104540000000000000060066000600780000000081
:10455000000000000000000000000000000000005B
:10456000000000000000000000000000000000004B
:10457000000000000000000000000000000000003B
:10458000000000000000000000000000000000002B
:10459000000000000000000000000000000000001B
:1045A000000000000000000000000000000000000B
:1045B00000000000000080000001C0000003600057
:1045C00000063000000C180000180C000030060037
:1045D0000060030000C001800100004002000020D4
:1045E00004000010000000000000000000000000B7
:1045F00000000000000000000000000000000000BB
:1046000000000000000000000000000000000000AA
:10461000000000000000000000000000000000009A
:10462000000000000000000000000000000000008A
:10463000000410000004100000041000000410002A
:10464000000410000004100000041000000410001A
:10465000000410000004100000041000000410000A
:104660000004100000041000000000000000000022
:10467000000000000000000000000000000000003A
:10468000000000000000000000000000000000002A
:10469000000000000000000000000000000000001A
:1046A000000000000000000000000000000000000A
:1046B0000000000004000010020000200100004083
:1046C00000C00180006003000030060000180C00EC
:1046D000000C180000063000000360000001C0005C
:1046E000000080000000000000000000000000004A
:1046F00000000000000000000000000000000000BA
:1047000000000000000000000000000000000000A9
:104710000000000000000000000000000000000099
:104720000000000000000000000000000000000089
:10473000000000000078000001F8000002380000CE
:1047400002000000040000C0040079E0040081E0E1
:10475000040100C004030000020200000306000080
:1047600001FC000000F80000000000000000000054
:104770000000000000000000000000000000000039
:104780000000000000000000000000000000000029
:104790000000000000000000000000000000000019
:1047A0000000000000000000000000000000000009
:1047B000000FF800003FFE000070078000C000C03E
:1047C0000101F8400307FC20021E042002300820EB
:1047D00002203020023FFC20013F044001800CC039
:1047E00000E03180001FC200000000000000000057
:1047F00000000000000000000000000000000000B9
:1048000000000000000000000000000000000000A8
:104810000000000000000000000000000000000098
:104820000000000000000000000000000000002068
:1048300000000060000003E000003E200003E020D4
:10484000003E200003E020000380200007FC200041
:10485000003FE0000003FE2000003FE0000001E018
:104860000000002000000020000000000000000008
:104870000000000000000000000000000000000038
:104880000000000000000000000000000000000028
:104890000000000000000000000000000000000018
:1048A0000000000000000000000000000000000008
:1048B000020000200200002003FFFFE003FFFFE0F2
:1048C000020100200201002002010020020100205C
:1048D00002010020030300200186806001FCC0C0AB
:1048E00000F87F8000001F000000000000000000B2
:1048F00000000000000000000000000000000000B8
:1049000000000000000000000000000000000000A7
:104910000000000000000000000000000000000097
:104920000000000000000000000000000000000087
:104930000007F800003FFF000070078000C000C0C3
:1049400001000040030000200200002002000020BF
:10495000020000200200002001000040018000C091
:1049600003C00180003006000000000000000000CD
:104970000000000000000000000000000000000037
:104980000000000000000000000000000000000027
:104990000000000000000000000000000000000017
:1049A0000000000000000000000000000000000007
:1049B000020000200200002003FFFFE003FFFFE0F1
:1049C000020000200200002002000020020000205F
:1049D0000300006001000040018000C000F007807B
:1049E000007FFE00000FF800000000000000000043
:1049F00000000000000000000000000000000000B7
:104A000000000000000000000000000000000000A6
:104A10000000000000000000000000000000000096
:104A20000000000000000000000000000000000086
:104A3000020000200200002003FFFFE003FFFFE070
:104A400002010020020100200201002002010020DA
:104A50000201002002038020020FE020030000601A
:104A600003C000E000600300000000000000000040
:104A70000000000000000000000000000000000036
:104A80000000000000000000000000000000000026
:104A90000000000000000000000000000000000016
:104AA0000000000000000000000000000000000006
:104AB000020000200200002003FFFFE003FFFFE0F0
:104AC000020100200201002002010000020100009A
:104AD000020100000201000002038000030FE00059
:104AE0000300000003C000000060000000000000A0
:104AF00000000000000000000000000000000000B6
:104B000000000000000000000000000000000000A5
:104B10000000000000000000000000000000000095
:104B20000000000000000000000000000000000085
:104B30000007F800003FFE000070078001C001C0C0
:104B400001000040030000200200002002000020BD
:104B500002000020010020200100204003C03F800F
:104B600000303F8000002000000020000000000016
:104B70000000000000000000000000000000000035
:104B80000000000000000000000000000000000025
:104B90000000000000000000000000000000000015
:104BA00000000000000000000000000002000020E3
:104BB0000200002003FFFFE003FFFFE0020080206F
:104BC00002008020000080000000800000008000C3
:104BD000020080200200802003FFFFE003FFFFE0CF
:104BE0000200002002000020000000000000000081
:104BF00000000000000000000000000000000000B5
:104C000000000000000000000000000000000000A4
:104C10000000000000000000000000000000000094
:104C20000000000000000000000000000000000084
:104C30000000000000000000020000200200002030
:104C4000020000200200002003FFFFE003FFFFE05E
:104C500002000020020000200200002002000020CC
:104C60000000000000000000000000000000000044
:104C70000000000000000000000000000000000034
:104C80000000000000000000000000000000000024
:104C90000000000000000000000000000000000014
:104CA0000000000000000000000000000000000004
:104CB0000000000E0000000F0000000F00000001C7
:104CC00002000001020000010200000302000006D1
:104CD00003FFFFFC03FFFFF80200000002000000DA
:104CE00002000000020000000000000000000000C0
:104CF00000000000000000000000000000000000B4
:104D000000000000000000000000000000000000A3
:104D10000000000000000000000000000000000093
:104D20000000000000000000000000000000000083
:104D3000020000200200002003FFFFE003FFFFE06D
:104D40000200C0200201002000078000000FE000E8
:104D50000030F80002603E2003800F20030003E0D3
:104D6000020000E00200002000000020000000001F
:104D70000000000000000000000000000000000033
:104D80000000000000000000000000000000000023
:104D90000000000000000000000000000000000013
:104DA0000000000000000000000000000000000003
:104DB000020000200200002003FFFFE003FFFFE0ED
:104DC000020000200200002000000020000000205F
:104DD0000000002000000020000000200000006013
:104DE000000000E0000003000000000000000000E0
:104DF00000000000000000000000000000000000B3
:104E000000000000000000000000000000000000A2
:104E10000000000000000000000000000000000092
:104E20000000000000000000000000000200002060
:104E30000200002003FFFFE003E0002003FF00204A
:104E4000001FF0000001FF8000000FE000001E00C6
:104E50000003E000003E002003E0002003FFFFE02D
:104E600003FFFFE00200002002000020000000001D
:104E70000000000000000000000000000000000032
:104E80000000000000000000000000000000000022
:104E90000000000000000000000000000000000012
:104EA00000000000000000000000000002000020E0
:104EB0000200002003FFFFE00380002003F0002039
:104EC00000FC0000001F00000007C0000001F0000F
:104ED00000007C0002001F80020007E003FFFFE0EB
:104EE00002000000020000000000000000000000BE
:104EF00000000000000000000000000000000000B2
:104F000000000000000000000000000000000000A1
:104F10000000000000000000000000000000000091
:104F20000000000000000000000000000000000081
:104F3000000FF800003FFE0000F00780018000C075
:104F400001000040020000200200002002000020BA
:104F50000200002001000040018000C000F003803A
:104F6000003FFE00000FF8000000000000000000FD
:104F70000000000000000000000000000000000031
:104F80000000000000000000000000000000000021
:104F90000000000000000000000000000000000011
:104FA0000000000000000000000000000000000001
:104FB000020000200200002003FFFFE003FFFFE0EB
:104FC0000200802002008020020080000200800099
:104FD00002008000020080000301800001830000C5
:104FE00000FE0000007C0000000000000000000047
:104FF00000000000000000000000000000000000B1
:1050000000000000000000000000000000000000A0
:105010000000000000000000000000000000000090
:105020000000000000000000000000000000000080
:10503000000FF800007FFF0000F00380018001C036
:1050400001000640020004200200042002000620A5
:10505000020003E0010000F80180005C00E0038C26
:10506000003FFF0C000FFC180000000000000000D3
:105070000000000000000000000000000000000030
:105080000000000000000000000000000000000020
:105090000000000000000000000000000000000010
:1050A0000000000000000000000000000000000000
:1050B000020000200200002003FFFFE003FFFFE0EA
:1050C0000201002002010020020180000201E00034
:1050D0000201FC0003033F80018607E001FC00E0C1
:1050E00000F8002000000020000000000000000088
:1050F00000000000000000000000000000000000B0
:10510000000000000000000000000000000000009F
:10511000000000000000000000000000000000008F
:10512000000000000000000000000000000000007F
:10513000000000000078060000FE01E0018600C0CB
:1051400003030040020300200201802002018020AE
:105150000201C0200200C0200100E060018070C098
:1051600003E03F8000001F0000000000000000007E
:10517000000000000000000000000000000000002F
:10518000000000000000000000000000000000001F
:10519000000000000000000000000000000000000F
:1051A00000000000000000000000000000000000FF
:1051B0000060000003800000030000000200000007
:1051C000020000200200002003FFFFE003FFFFE0D9
:1051D0000200002002000020020000000200000087
:1051E0000380000000E0000000000000000000005C
:1051F00000000000000000000000000000000000AF
:10520000000000000000000000000000000000009E
:10521000000000000000000000000000000000008E
:10522000000000000000000000000000020000007C
:105230000200000003FFFF0003FFFFC00200004068
:10524000020000600000002000000020000000209C
:1052500000000020020000400200008003FFFF0069
:10526000020000000200000000000000000000003A
:10527000000000000000000000000000000000002E
:10528000000000000000000000000000000000001E
:10529000000000000000000000000000000000000E
:1052A00000000000000000000000000000000000FE
:1052B000020000000200000003C0000003FC000028
:1052C000023FC0000003F80000007F80000007E0FC
:1052D00000000780000078000203C000023C0000CC
:1052E00003C00000020000000200000000000000F7
:1052F00000000000000000000000000000000000AE
:10530000000000000000000000000000000000009D
:10531000000000000000000000000000000000008D
:10532000000000000000000000000000020000007B
:1053300003C0000003FF8000023FFE0002007FE088
:1053400000000F000200F00003EF000003FF8000E8
:10535000020FFE0000003FE000001F000207E00017
:1053600003F800000300000002000000000000003D
:10537000000000000000000000000000000000002D
:10538000000000000000000000000000000000001D
:10539000000000000000000000000000000000000D
:1053A00000000000000000000000000000000000FD
:1053B0000200002002000020038000E003F0032030
:1053C00002FC0C20021F30000007C0000007F000A4
:1053D00002187C0002601F20038003E0020000E04E
:1053E000020000200000002000000000000000007B
:1053F00000000000000000000000000000000000AD
:10540000000000000000000000000000000000009C
:10541000000000000000000000000000000000008C
:10542000000000000000000000000000000000007C
:10543000020000000300000003C0000003F80000A9
:10544000023E0020020FC0200001FFE000007FE0CC
:1054500000038020021C0020027000000380000076
:105460000200000002000000000000000000000038
:10547000000000000000000000000000000000002C
:10548000000000000000000000000000000000001C
:10549000000000000000000000000000000000000C
:1054A00000000000000000000000000000000000FC
:1054B00000000020006000E0038003E003000FA074
:1054C00002003E200200F8200203E020020F8020AC
:1054D000023E00200278002003E00060038000E02C
:1054E00002000300000000000000000000000000B7
:1054F00000000000000000000000000000000000AC
:10550000000000000000000000000000000000009B
:10551000000000000000000000000000000000008B
:10552000000000000000000000000000000000007B
:10553000000000000000000000000000000000006B
:10554000000000001FFFFFFC10000004100000041A
:1055500010000004100000041000000410000004FB
:105560001000000400000000000000000000000027
:10557000000000000000000000000000000000002B
:10558000000000000000000000000000000000001B
:10559000000000000000000000000000000000000B
:1055A00000000000000000000000000000000000FB
:1055B00000000000000000000700000003C0000021
:1055C00000780000001E00000003C0000000F00092
:1055D00000001E0000000780000000F00000003CFA
:1055E00000000006000000000000000000000000B5
:1055F00000000000000000000000000000000000AB
:10560000000000000000000000000000000000009A
:10561000000000000000000000000000000000008A
:10562000000000000000000000000000000000007A
:10563000000000001000000410000004100000042E
:10564000100000041000000410000004100000040A
:105650001FFFFFFC00000000000000000000000031
:10566000000000000000000000000000000000003A
:10567000000000000000000000000000000000002A
:10568000000000000000000000000000000000001A
:10569000000000000000000000000000000000000A
:1056A00000000000000000000000000000000000FA
:1056B00000000000000000000000000002000000E8
:1056C00004000000080000001800000010000000A6
:1056D0001800000018000000040000000200000094
:1056E00000000000000000000000000000000000BA
:1056F00000000000000000000000000000000000AA
:105700000000000000000000000000000000000099
:105710000000000000000000000000000000000089
:105720000000000000000000000000000000000178
:105730000000000100000001000000010000000165
:105740000000000100000001000000010000000155
:105750000000000100000001000000010000000145
:105760000000000100000001000000010000000036
:105770000000000000000000000000000000000029
:105780000000000000000000000000000000000019
:105790000000000000000000000000000000000009
:1057A00000000000000000000000000000000000F9
:1057B00000000000000000001000000010000000C9
:1057C00010000000180000000800000004000000A5
:1057D00000000000000000000000000000000000C9
:1057E00000000000000000000000000000000000B9
:1057F00000000000000000000000000000000000A9
:105800000000000000000000000000000000000098
:105810000000000000000000000000000000000088
:105820000000000000000000000000000000000078
:105830000000038000018FC000038C600006182068
:105840000004102000041020000420200004204048
:10585000000620400003FFC00001FFE00000002020
:1058600000000020000000C0000000000000000058
:105870000000000000000000000000000000000028
:105880000000000000000000000000000000000018
:105890000000000000000000000000000000000008
:1058A00000000000000000000000000000000000F8
:1058B000020000000200000003FFFFE007FFFFC03E
:1058C000000180C0000200600002002000040020EF
:1058D000000400200004002000060040000300C077
:1058E0000001FF800000FE0000000000000000003A
:1058F00000000000000000000000000000000000A8
:105900000000000000000000000000000000000097
:105910000000000000000000000000000000000087
:105920000000000000000000000000000000000077
:105930000000000000007E000001FF80000381C025
:1059400000020040000600200004002000040020A7
:1059500000040020000600200003C0400001C080B9
:105960000000030000000000000000000000000034
:105970000000000000000000000000000000000027
:105980000000000000000000000000000000000017
:105990000000000000000000000000000000000007
:1059A00000000000000000000000000000000000F7
:1059B0000000000000007E000001FF80000380C0A6
:1059C0000006006000040020000400200004002005
:1059D000020400400202008003FFFFE007FFFFC057
:1059E0000000004000000040000000000000000037
:1059F00000000000000000000000000000000000A7
:105A00000000000000000000000000000000000096
:105A10000000000000000000000000000000000086
:105A20000000000000000000000000000000000076
:105A30000000000000007E000001FF80000311C094
:105A40000002104000041060000410200004102028
:105A50000004102000061020000310400001F0C0D8
:105A600000007100000000000000000000000000C5
:105A70000000000000000000000000000000000026
:105A80000000000000000000000000000000000016
:105A90000000000000000000000000000000000006
:105AA00000000000000000000000000000000000F6
:105AB000000000000004000000040020000400209A
:105AC00000040020007FFFE001FFFFE00104002050
:105AD000030400200204002002040020020400004D
:105AE0000200000001C0000001C000000000000032
:105AF00000000000000000000000000000000000A6
:105B00000000000000000000000000000000000095
:105B10000000000000000000000000000000000085
:105B20000000000000000000000000000000000075
:105B3000000000000000001C0000E33E0003FFC264
:105B400000020CC3000404C1000404C1000404C129
:105B5000000404C100060CC10003F8C30005F06294
:105B60000006007E0006003C00000000000000006F
:105B70000000000000000000000000000000000025
:105B80000000000000000000000000000000000015
:105B90000000000000000000000000000000000005
:105BA00000000000000000000000000000000000F5
:105BB000020000200200002003FFFFE007FFFFE0DB
:105BC0000001002000020020000600000004000088
:105BD0000004000000040020000600200003FFE095
:105BE0000001FFE000000020000000200000000095
:105BF00000000000000000000000000000000000A5
:105C00000000000000000000000000000000000094
:105C10000000000000000000000000000000000084
:105C20000000000000000000000000000000000074
:105C3000000000000000000000040020000400201C
:105C400000040020000400200387FFE0038FFFE032
:105C50000380002000000020000000200000002041
:105C60000000000000000000000000000000000034
:105C70000000000000000000000000000000000024
:105C80000000000000000000000000000000000014
:105C90000000000000000000000000000000000004
:105CA00000000000000000000000000000000000F4
:105CB00000000000000000000000000600000007D7
:105CC00000000001000000010004000100040001C8
:105CD00000040003000400060387FFFC038FFFF8A5
:105CE0000380000000000000000000000000000031
:105CF00000000000000000000000000000000000A4
:105D00000000000000000000000000000000000093
:105D10000000000000000000000000000000000083
:105D20000000000000000000000000000000000073
:105D3000020000200200002003FFFFE007FFFFE059
:105D40000000082000001020000030000000FC00CF
:105D500000058E00000707A0000601E0000400E037
:105D600000040020000000200000000000000000EF
:105D70000000000000000000000000000000000023
:105D80000000000000000000000000000000000013
:105D90000000000000000000000000000000000003
:105DA00000000000000000000000000000000000F3
:105DB000000000000000000002000020020000209F
:105DC000020000200200002003FFFFE007FFFFE0C9
:105DD0000000002000000020000000200000002043
:105DE00000000000000000000000000000000000B3
:105DF00000000000000000000000000000000000A3
:105E00000000000000000000000000000000000092
:105E10000000000000000000000000000000000082
:105E20000000000000000000000000000000000072
:105E3000000400200007FFE0000FFFE00002002048
:105E400000040000000400200007FFE00003FFE062
:105E50000002002000040000000400200007FFE012
:105E60000003FFE000000020000000000000000030
:105E70000000000000000000000000000000000022
:105E80000000000000000000000000000000000012
:105E90000000000000000000000000000000000002
:105EA00000000000000000000000000000000000F2
:105EB00000040020000400200007FFE0000FFFE0C6
:105EC0000001002000020020000200000004000089
:105ED0000004000000040020000600200003FFE092
:105EE0000001FFE000000020000000200000000092
:105EF00000000000000000000000000000000000A2
:105F00000000000000000000000000000000000091
:105F10000000000000000000000000000000000081
:105F20000000000000000000000000000000000071
:105F30000000000000007E000000FF80000381C020
:105F400000020040000600200004002000040020A1
:105F5000000400200006002000020040000381C071
:105F60000001FF8000007E00000000000000000033
:105F70000000000000000000000000000000000021
:105F80000000000000000000000000000000000011
:105F90000000000000000000000000000000000001
:105FA00000000000000000000000000000000000F1
:105FB00000040001000400010007FFFF000FFFFFC5
:105FC000000100C100020041000400200004002084
:105FD000000400200004002000060040000301C06F
:105FE0000001FF8000007E000000000000000000B3
:105FF00000000000000000000000000000000000A1
:106000000000000000000000000000000000000090
:106010000000000000000000000000000000000080
:106020000000000000000000000000000000000070
:106030000000000000007E000001FF80000380C01F
:106040000002006000040020000400200004002082
:106050000004002000020041000300C10003FFFF14
:106060000007FFFF00000001000000010000000029
:106070000000000000000000000000000000000020
:106080000000000000000000000000000000000010
:106090000000000000000000000000000000000000
:1060A00000000000000000000000000000000000F0
:1060B0000004002000040020000400200004002050
:1060C000000FFFE0000FFFE00000C02000010020F3
:1060D0000002002000060020000400000004000070
:1060E00000070000000300000000000000000000A6
:1060F00000000000000000000000000000000000A0
:10610000000000000000000000000000000000008F
:10611000000000000000000000000000000000007F
:10612000000000000000000000000000000000006F
:1061300000000000000003E00001C0E00003E040B8
:10614000000630200004302000041820000418202D
:106150000004182000040C2000020C60000307C09B
:106160000007838000000000000000000000000025
:10617000000000000000000000000000000000001F
:10618000000000000000000000000000000000000F
:1061900000000000000000000000000000000000FF
:1061A00000000000000000000000000000000000EF
:1061B00000000000000400000004000000040000D3
:1061C000000C0000001FFF8000FFFFC00004006003
:1061D000000400200004002000040020000400400F
:1061E000000001800000000000000000000000002E
:1061F000000000000000000000000000000000009F
:10620000000000000000000000000000000000008E
:10621000000000000000000000000000000000007E
:10622000000000000000000000000000000000006E
:1062300000040000000400000007FF80000FFFC002
:10624000000000600000002000000020000000208E
:106250000000002000040040000400800007FFE070
:10626000000FFFC0000000400000004000000000E0
:10627000000000000000000000000000000000001E
:10628000000000000000000000000000000000000E
:1062900000000000000000000000000000000000FE
:1062A00000000000000000000000000000000000EE
:1062B0000004000000040000000780000007F00058
:1062C0000004FE0000041FC0000003E00000038083
:1062D00000001C00000460000007800000060000B1
:1062E00000040000000000000000000000000000AA
:1062F000000000000000000000000000000000009E
:10630000000000000000000000000000000000008D
:10631000000000000000000000000000000000007D
:106320000000000000000000000000000004000069
:10633000000600000007C0000007FC0000043F80CA
:10634000000003E000040F800006F0000007F000EA
:106350000007FF8000040FE00000038000043C0001
:106360000007C0000006000000040000000000005C
:10637000000000000000000000000000000000001D
:10638000000000000000000000000000000000000D
:1063900000000000000000000000000000000000FD
:1063A00000000000000000000000000000000000ED
:1063B000000000200004002000040060000700E04E
:1063C000000783200007E6000004F80000003C00FE
:1063D00000045E20000587A0000601E000040060C4
:1063E0000004002000000020000000000000000069
:1063F000000000000000000000000000000000009D
:10640000000000000000000000000000000000008C
:10641000000000000000000000000000000000007C
:10642000000000000000000000000000000000006C
:106430000004000000040003000700030007E0015F
:106440000004F80100041F02000007FC000000E047
:1064500000000700000438000007C000000600002C
:106460000004000000040000000000000000000024
:10647000000000000000000000000000000000001C
:10648000000000000000000000000000000000000C
:1064900000000000000000000000000000000000FC
:1064A00000000000000000000000000000000000EC
:1064B0000000000000078060000600E0000403E028
:1064C000000407A000040E2000043C2000047020FB
:1064D0000005E0200007802000070060000400E0C5
:1064E0000000038000000000000000000000000029
:1064F000000000000000000000000000000000009C
:10650000000000000000000000000000000000008B
:10651000000000000000000000000000000000007B
:10652000000000000000000000000000000000006B
:10653000000000000000000000000000000000005B
:10654000000000000000000000008000000080004B
:106550000001400007FE3FF80800000410000002A0
:106560001000000200000000000000000000000019
:10657000000000000000000000000000000000001B
:10658000000000000000000000000000000000000B
:1065900000000000000000000000000000000000FB
:1065A00000000000000000000000000000000000EB
:1065B00000000000000000000000000000000000DB
:1065C000000000000000000000000000FFFFFFFFCF
:1065D00000000000000000000000000000000000BB
:1065E00000000000000000000000000000000000AB
:1065F000000000000000000000000000000000009B
:10660000000000000000000000000000000000008A
:10661000000000000000000000000000000000007A
:10662000000000000000000000000000000000006A
:10663000000000001000000210000002080000042A
:1066400007FE3FF8000140000000800000008000CD
:10665000000000000000000000000000000000003A
:10666000000000000000000000000000000000002A
:10667000000000000000000000000000000000001A
:10668000000000000000000000000000000000000A
:1066900000000000000000000000000000000000FA
:1066A00000000000000000000000000000000000EA
:1066B0001800000030000000400000004000000012
:1066C0004000000020000000300000000800000032
:1066D00004000000020000000200000002000000B0
:1066E0000C00000018000000000000000000000086
:1066F000000000000000000000000000000000009A
:106700000000000000000000000000000000000089
:106710000000000000000000000000000000000079
:10672000000000000000000000000000C6D50000CE
:10673000000000E0380000783C00003C7800003C9D
:1067400070C0001CE1E01FFFFFF0001CE3000E1C06
:10675000E7C0079CE78003DCEF0003DCEE0001DC10
:10676000FC60009CF9F07FFFFFF80000000001C012
:106770000E0001FFFF0001C00E0001C00E0001C0AD
:106780000E0001FFFE0001C00E0001C00E0001C09E
:106790000E0001FFFE0001C00E0001C00E0000004F
:1067A0000000D6D0000000000007000000078000B5
:1067B000000700000007000000070000000701803C
:1067C0001FFFFFE01FFFFFE01E0701C01E0701C003
:1067D0001E0701C01E0701C01E0701C01E0701C021
:1067E0001FFFFFC01FFFFFC01E0701C01C07018065
:1067F000000700000007000000070000000700007D
:10680000000700000007000000070000000700006C
:106810000007000000000000BFC6000000000000EC
:106820000780003C07C001FC07803FE0078039C1BA
:10683000C78001C0E78001C0F78001C0778001DE1A
:1068400077807FFE078001C0078003C3C78003E114
:10685000E78003F8F78007FCE7F00FDE67F80FDC4E
:1068600007F81FC0FF801DDFE78039CC078071C0AB
:10687000078061C0078001C0078001C0078001E078
:10688000078001E0078001C0070000000000BCBCD9
:10689000000000000380300003C03C0003C03C0047
:1068A00003C0380003C0380003C0386003F838F074
:1068B0007FFFFFF003C0380003C0380003C038007A
:1068C00003DC39C003FFFFE007E383C03FC183C09F
:1068D0007FC1C3803BC1C78003C0EF0003C0EF008E
:1068E00003C07E0003C07C0003C07C0003C0FE0028
:1068F0003BC3EF803F8787F80FBF03F8077800E0BE
:106900000000000024690008000000202C000000A6
:10691000BC190008506900082C000020CC140000AD
:10692000CC19000800000000010203040102030466
:10693000060708090000000000000000FFFF00003B
:106940000000000000000040010000000000000006
:040000050800018965
:00000001FF
